{
  "address": "0x0395E9a0aD62cBB28a15281B0c5D801c72a9364c",
  "abi": [
    {
      "inputs": [
        {
          "internalType": "address",
          "name": "_endpoint",
          "type": "address"
        },
        {
          "internalType": "address",
          "name": "_delegate",
          "type": "address"
        }
      ],
      "stateMutability": "nonpayable",
      "type": "constructor"
    },
    {
      "inputs": [],
      "name": "InvalidDelegate",
      "type": "error"
    },
    {
      "inputs": [],
      "name": "InvalidEndpointCall",
      "type": "error"
    },
    {
      "inputs": [
        {
          "internalType": "bytes",
          "name": "options",
          "type": "bytes"
        }
      ],
      "name": "InvalidOptions",
      "type": "error"
    },
    {
      "inputs": [],
      "name": "LzTokenUnavailable",
      "type": "error"
    },
    {
      "inputs": [
        {
          "internalType": "uint32",
          "name": "eid",
          "type": "uint32"
        }
      ],
      "name": "NoPeer",
      "type": "error"
    },
    {
      "inputs": [
        {
          "internalType": "uint256",
          "name": "msgValue",
          "type": "uint256"
        }
      ],
      "name": "NotEnoughNative",
      "type": "error"
    },
    {
      "inputs": [
        {
          "internalType": "address",
          "name": "addr",
          "type": "address"
        }
      ],
      "name": "OnlyEndpoint",
      "type": "error"
    },
    {
      "inputs": [
        {
          "internalType": "uint32",
          "name": "eid",
          "type": "uint32"
        },
        {
          "internalType": "bytes32",
          "name": "sender",
          "type": "bytes32"
        }
      ],
      "name": "OnlyPeer",
      "type": "error"
    },
    {
      "inputs": [
        {
          "internalType": "address",
          "name": "owner",
          "type": "address"
        }
      ],
      "name": "OwnableInvalidOwner",
      "type": "error"
    },
    {
      "inputs": [
        {
          "internalType": "address",
          "name": "account",
          "type": "address"
        }
      ],
      "name": "OwnableUnauthorizedAccount",
      "type": "error"
    },
    {
      "inputs": [
        {
          "internalType": "address",
          "name": "token",
          "type": "address"
        }
      ],
      "name": "SafeERC20FailedOperation",
      "type": "error"
    },
    {
      "anonymous": false,
      "inputs": [
        {
          "indexed": true,
          "internalType": "address",
          "name": "user",
          "type": "address"
        },
        {
          "indexed": false,
          "internalType": "uint256",
          "name": "amount",
          "type": "uint256"
        },
        {
          "indexed": false,
          "internalType": "address",
          "name": "composedAddress",
          "type": "address"
        },
        {
          "indexed": false,
          "internalType": "uint32",
          "name": "dstEid",
          "type": "uint32"
        },
        {
          "indexed": false,
          "internalType": "uint8",
          "name": "operation",
          "type": "uint8"
        }
      ],
      "name": "ComposedMessageSent",
      "type": "event"
    },
    {
      "anonymous": false,
      "inputs": [
        {
          "indexed": true,
          "internalType": "address",
          "name": "user",
          "type": "address"
        },
        {
          "indexed": false,
          "internalType": "uint256",
          "name": "amount",
          "type": "uint256"
        }
      ],
      "name": "Deposited",
      "type": "event"
    },
    {
      "anonymous": false,
      "inputs": [
        {
          "components": [
            {
              "internalType": "uint32",
              "name": "eid",
              "type": "uint32"
            },
            {
              "internalType": "uint16",
              "name": "msgType",
              "type": "uint16"
            },
            {
              "internalType": "bytes",
              "name": "options",
              "type": "bytes"
            }
          ],
          "indexed": false,
          "internalType": "struct EnforcedOptionParam[]",
          "name": "_enforcedOptions",
          "type": "tuple[]"
        }
      ],
      "name": "EnforcedOptionSet",
      "type": "event"
    },
    {
      "anonymous": false,
      "inputs": [
        {
          "indexed": true,
          "internalType": "address",
          "name": "previousOwner",
          "type": "address"
        },
        {
          "indexed": true,
          "internalType": "address",
          "name": "newOwner",
          "type": "address"
        }
      ],
      "name": "OwnershipTransferred",
      "type": "event"
    },
    {
      "anonymous": false,
      "inputs": [
        {
          "indexed": false,
          "internalType": "uint32",
          "name": "eid",
          "type": "uint32"
        },
        {
          "indexed": false,
          "internalType": "bytes32",
          "name": "peer",
          "type": "bytes32"
        }
      ],
      "name": "PeerSet",
      "type": "event"
    },
    {
      "anonymous": false,
      "inputs": [
        {
          "indexed": true,
          "internalType": "address",
          "name": "user",
          "type": "address"
        },
        {
          "indexed": false,
          "internalType": "uint256",
          "name": "amount",
          "type": "uint256"
        }
      ],
      "name": "WithdrawalConfirmed",
      "type": "event"
    },
    {
      "anonymous": false,
      "inputs": [
        {
          "indexed": true,
          "internalType": "address",
          "name": "user",
          "type": "address"
        },
        {
          "indexed": false,
          "internalType": "uint256",
          "name": "amount",
          "type": "uint256"
        },
        {
          "indexed": true,
          "internalType": "bytes32",
          "name": "guid",
          "type": "bytes32"
        }
      ],
      "name": "WithdrawalInitiated",
      "type": "event"
    },
    {
      "anonymous": false,
      "inputs": [
        {
          "indexed": true,
          "internalType": "address",
          "name": "user",
          "type": "address"
        },
        {
          "indexed": false,
          "internalType": "uint256",
          "name": "amount",
          "type": "uint256"
        }
      ],
      "name": "Withdrawn",
      "type": "event"
    },
    {
      "inputs": [],
      "name": "OPERATION_DEPOSIT",
      "outputs": [
        {
          "internalType": "uint8",
          "name": "",
          "type": "uint8"
        }
      ],
      "stateMutability": "view",
      "type": "function"
    },
    {
      "inputs": [],
      "name": "OPERATION_WITHDRAW",
      "outputs": [
        {
          "internalType": "uint8",
          "name": "",
          "type": "uint8"
        }
      ],
      "stateMutability": "view",
      "type": "function"
    },
    {
      "inputs": [],
      "name": "OPERATION_WITHDRAW_FAILED",
      "outputs": [
        {
          "internalType": "uint8",
          "name": "",
          "type": "uint8"
        }
      ],
      "stateMutability": "view",
      "type": "function"
    },
    {
      "inputs": [],
      "name": "OPERATION_WITHDRAW_SUCCESS",
      "outputs": [
        {
          "internalType": "uint8",
          "name": "",
          "type": "uint8"
        }
      ],
      "stateMutability": "view",
      "type": "function"
    },
    {
      "inputs": [
        {
          "components": [
            {
              "internalType": "uint32",
              "name": "srcEid",
              "type": "uint32"
            },
            {
              "internalType": "bytes32",
              "name": "sender",
              "type": "bytes32"
            },
            {
              "internalType": "uint64",
              "name": "nonce",
              "type": "uint64"
            }
          ],
          "internalType": "struct Origin",
          "name": "origin",
          "type": "tuple"
        }
      ],
      "name": "allowInitializePath",
      "outputs": [
        {
          "internalType": "bool",
          "name": "",
          "type": "bool"
        }
      ],
      "stateMutability": "view",
      "type": "function"
    },
    {
      "inputs": [
        {
          "internalType": "uint32",
          "name": "_eid",
          "type": "uint32"
        },
        {
          "internalType": "uint16",
          "name": "_msgType",
          "type": "uint16"
        },
        {
          "internalType": "bytes",
          "name": "_extraOptions",
          "type": "bytes"
        }
      ],
      "name": "combineOptions",
      "outputs": [
        {
          "internalType": "bytes",
          "name": "",
          "type": "bytes"
        }
      ],
      "stateMutability": "view",
      "type": "function"
    },
    {
      "inputs": [],
      "name": "data",
      "outputs": [
        {
          "internalType": "string",
          "name": "",
          "type": "string"
        }
      ],
      "stateMutability": "view",
      "type": "function"
    },
    {
      "inputs": [
        {
          "internalType": "uint32",
          "name": "_dstEid",
          "type": "uint32"
        },
        {
          "internalType": "uint256",
          "name": "_amount",
          "type": "uint256"
        },
        {
          "internalType": "address",
          "name": "_composedAddress",
          "type": "address"
        },
        {
          "internalType": "bytes",
          "name": "_options",
          "type": "bytes"
        }
      ],
      "name": "deposit",
      "outputs": [
        {
          "components": [
            {
              "internalType": "bytes32",
              "name": "guid",
              "type": "bytes32"
            },
            {
              "internalType": "uint64",
              "name": "nonce",
              "type": "uint64"
            },
            {
              "components": [
                {
                  "internalType": "uint256",
                  "name": "nativeFee",
                  "type": "uint256"
                },
                {
                  "internalType": "uint256",
                  "name": "lzTokenFee",
                  "type": "uint256"
                }
              ],
              "internalType": "struct MessagingFee",
              "name": "fee",
              "type": "tuple"
            }
          ],
          "internalType": "struct MessagingReceipt",
          "name": "receipt",
          "type": "tuple"
        }
      ],
      "stateMutability": "payable",
      "type": "function"
    },
    {
      "inputs": [],
      "name": "endpoint",
      "outputs": [
        {
          "internalType": "contract ILayerZeroEndpointV2",
          "name": "",
          "type": "address"
        }
      ],
      "stateMutability": "view",
      "type": "function"
    },
    {
      "inputs": [
        {
          "internalType": "uint32",
          "name": "eid",
          "type": "uint32"
        },
        {
          "internalType": "uint16",
          "name": "msgType",
          "type": "uint16"
        }
      ],
      "name": "enforcedOptions",
      "outputs": [
        {
          "internalType": "bytes",
          "name": "enforcedOption",
          "type": "bytes"
        }
      ],
      "stateMutability": "view",
      "type": "function"
    },
    {
      "inputs": [
        {
          "internalType": "uint32",
          "name": "_dstEid",
          "type": "uint32"
        },
        {
          "internalType": "uint256",
          "name": "_amount",
          "type": "uint256"
        },
        {
          "internalType": "address",
          "name": "_composedAddress",
          "type": "address"
        },
        {
          "internalType": "bytes",
          "name": "_options",
          "type": "bytes"
        }
      ],
      "name": "getDepositQuote",
      "outputs": [
        {
          "components": [
            {
              "internalType": "uint256",
              "name": "nativeFee",
              "type": "uint256"
            },
            {
              "internalType": "uint256",
              "name": "lzTokenFee",
              "type": "uint256"
            }
          ],
          "internalType": "struct MessagingFee",
          "name": "fee",
          "type": "tuple"
        }
      ],
      "stateMutability": "view",
      "type": "function"
    },
    {
      "inputs": [
        {
          "internalType": "bytes32",
          "name": "_guid",
          "type": "bytes32"
        }
      ],
      "name": "getPendingWithdrawal",
      "outputs": [
        {
          "components": [
            {
              "internalType": "address",
              "name": "user",
              "type": "address"
            },
            {
              "internalType": "uint256",
              "name": "amount",
              "type": "uint256"
            },
            {
              "internalType": "bool",
              "name": "exists",
              "type": "bool"
            }
          ],
          "internalType": "struct AnyStake.PendingWithdrawal",
          "name": "",
          "type": "tuple"
        }
      ],
      "stateMutability": "view",
      "type": "function"
    },
    {
      "inputs": [
        {
          "internalType": "uint32",
          "name": "_dstEid",
          "type": "uint32"
        },
        {
          "internalType": "address",
          "name": "_user",
          "type": "address"
        },
        {
          "internalType": "uint256",
          "name": "_amount",
          "type": "uint256"
        },
        {
          "internalType": "bool",
          "name": "_success",
          "type": "bool"
        }
      ],
      "name": "getSendQuote",
      "outputs": [
        {
          "components": [
            {
              "internalType": "uint256",
              "name": "nativeFee",
              "type": "uint256"
            },
            {
              "internalType": "uint256",
              "name": "lzTokenFee",
              "type": "uint256"
            }
          ],
          "internalType": "struct MessagingFee",
          "name": "fee",
          "type": "tuple"
        }
      ],
      "stateMutability": "view",
      "type": "function"
    },
    {
      "inputs": [
        {
          "internalType": "uint32",
          "name": "_dstEid",
          "type": "uint32"
        },
        {
          "internalType": "uint256",
          "name": "_amount",
          "type": "uint256"
        },
        {
          "internalType": "address",
          "name": "_composedAddress",
          "type": "address"
        },
        {
          "internalType": "bytes",
          "name": "_options",
          "type": "bytes"
        }
      ],
      "name": "getWithdrawQuote",
      "outputs": [
        {
          "components": [
            {
              "internalType": "uint256",
              "name": "nativeFee",
              "type": "uint256"
            },
            {
              "internalType": "uint256",
              "name": "lzTokenFee",
              "type": "uint256"
            }
          ],
          "internalType": "struct MessagingFee",
          "name": "fee",
          "type": "tuple"
        }
      ],
      "stateMutability": "view",
      "type": "function"
    },
    {
      "inputs": [
        {
          "components": [
            {
              "internalType": "uint32",
              "name": "srcEid",
              "type": "uint32"
            },
            {
              "internalType": "bytes32",
              "name": "sender",
              "type": "bytes32"
            },
            {
              "internalType": "uint64",
              "name": "nonce",
              "type": "uint64"
            }
          ],
          "internalType": "struct Origin",
          "name": "",
          "type": "tuple"
        },
        {
          "internalType": "bytes",
          "name": "",
          "type": "bytes"
        },
        {
          "internalType": "address",
          "name": "_sender",
          "type": "address"
        }
      ],
      "name": "isComposeMsgSender",
      "outputs": [
        {
          "internalType": "bool",
          "name": "",
          "type": "bool"
        }
      ],
      "stateMutability": "view",
      "type": "function"
    },
    {
      "inputs": [
        {
          "internalType": "address",
          "name": "",
          "type": "address"
        }
      ],
      "name": "lockedBalances",
      "outputs": [
        {
          "internalType": "uint256",
          "name": "",
          "type": "uint256"
        }
      ],
      "stateMutability": "view",
      "type": "function"
    },
    {
      "inputs": [
        {
          "components": [
            {
              "internalType": "uint32",
              "name": "srcEid",
              "type": "uint32"
            },
            {
              "internalType": "bytes32",
              "name": "sender",
              "type": "bytes32"
            },
            {
              "internalType": "uint64",
              "name": "nonce",
              "type": "uint64"
            }
          ],
          "internalType": "struct Origin",
          "name": "_origin",
          "type": "tuple"
        },
        {
          "internalType": "bytes32",
          "name": "_guid",
          "type": "bytes32"
        },
        {
          "internalType": "bytes",
          "name": "_message",
          "type": "bytes"
        },
        {
          "internalType": "address",
          "name": "_executor",
          "type": "address"
        },
        {
          "internalType": "bytes",
          "name": "_extraData",
          "type": "bytes"
        }
      ],
      "name": "lzReceive",
      "outputs": [],
      "stateMutability": "payable",
      "type": "function"
    },
    {
      "inputs": [
        {
          "internalType": "uint32",
          "name": "",
          "type": "uint32"
        },
        {
          "internalType": "bytes32",
          "name": "",
          "type": "bytes32"
        }
      ],
      "name": "nextNonce",
      "outputs": [
        {
          "internalType": "uint64",
          "name": "nonce",
          "type": "uint64"
        }
      ],
      "stateMutability": "view",
      "type": "function"
    },
    {
      "inputs": [],
      "name": "oAppVersion",
      "outputs": [
        {
          "internalType": "uint64",
          "name": "senderVersion",
          "type": "uint64"
        },
        {
          "internalType": "uint64",
          "name": "receiverVersion",
          "type": "uint64"
        }
      ],
      "stateMutability": "pure",
      "type": "function"
    },
    {
      "inputs": [],
      "name": "owner",
      "outputs": [
        {
          "internalType": "address",
          "name": "",
          "type": "address"
        }
      ],
      "stateMutability": "view",
      "type": "function"
    },
    {
      "inputs": [
        {
          "internalType": "uint32",
          "name": "eid",
          "type": "uint32"
        }
      ],
      "name": "peers",
      "outputs": [
        {
          "internalType": "bytes32",
          "name": "peer",
          "type": "bytes32"
        }
      ],
      "stateMutability": "view",
      "type": "function"
    },
    {
      "inputs": [
        {
          "internalType": "bytes32",
          "name": "",
          "type": "bytes32"
        }
      ],
      "name": "pendingWithdrawals",
      "outputs": [
        {
          "internalType": "address",
          "name": "user",
          "type": "address"
        },
        {
          "internalType": "uint256",
          "name": "amount",
          "type": "uint256"
        },
        {
          "internalType": "bool",
          "name": "exists",
          "type": "bool"
        }
      ],
      "stateMutability": "view",
      "type": "function"
    },
    {
      "inputs": [
        {
          "internalType": "uint32",
          "name": "_dstEid",
          "type": "uint32"
        },
        {
          "internalType": "uint8",
          "name": "_operation",
          "type": "uint8"
        },
        {
          "internalType": "uint256",
          "name": "_amount",
          "type": "uint256"
        },
        {
          "internalType": "address",
          "name": "_user",
          "type": "address"
        },
        {
          "internalType": "address",
          "name": "_composedAddress",
          "type": "address"
        },
        {
          "internalType": "bytes",
          "name": "_options",
          "type": "bytes"
        },
        {
          "internalType": "bool",
          "name": "_payInLzToken",
          "type": "bool"
        }
      ],
      "name": "quote",
      "outputs": [
        {
          "components": [
            {
              "internalType": "uint256",
              "name": "nativeFee",
              "type": "uint256"
            },
            {
              "internalType": "uint256",
              "name": "lzTokenFee",
              "type": "uint256"
            }
          ],
          "internalType": "struct MessagingFee",
          "name": "fee",
          "type": "tuple"
        }
      ],
      "stateMutability": "view",
      "type": "function"
    },
    {
      "inputs": [],
      "name": "renounceOwnership",
      "outputs": [],
      "stateMutability": "nonpayable",
      "type": "function"
    },
    {
      "inputs": [
        {
          "internalType": "uint32",
          "name": "_dstEid",
          "type": "uint32"
        },
        {
          "internalType": "address",
          "name": "_user",
          "type": "address"
        },
        {
          "internalType": "uint256",
          "name": "_amount",
          "type": "uint256"
        },
        {
          "internalType": "bool",
          "name": "_success",
          "type": "bool"
        }
      ],
      "name": "send",
      "outputs": [],
      "stateMutability": "payable",
      "type": "function"
    },
    {
      "inputs": [
        {
          "internalType": "address",
          "name": "_delegate",
          "type": "address"
        }
      ],
      "name": "setDelegate",
      "outputs": [],
      "stateMutability": "nonpayable",
      "type": "function"
    },
    {
      "inputs": [
        {
          "components": [
            {
              "internalType": "uint32",
              "name": "eid",
              "type": "uint32"
            },
            {
              "internalType": "uint16",
              "name": "msgType",
              "type": "uint16"
            },
            {
              "internalType": "bytes",
              "name": "options",
              "type": "bytes"
            }
          ],
          "internalType": "struct EnforcedOptionParam[]",
          "name": "_enforcedOptions",
          "type": "tuple[]"
        }
      ],
      "name": "setEnforcedOptions",
      "outputs": [],
      "stateMutability": "nonpayable",
      "type": "function"
    },
    {
      "inputs": [
        {
          "internalType": "uint32",
          "name": "_eid",
          "type": "uint32"
        },
        {
          "internalType": "bytes32",
          "name": "_peer",
          "type": "bytes32"
        }
      ],
      "name": "setPeer",
      "outputs": [],
      "stateMutability": "nonpayable",
      "type": "function"
    },
    {
      "inputs": [
        {
          "internalType": "address",
          "name": "newOwner",
          "type": "address"
        }
      ],
      "name": "transferOwnership",
      "outputs": [],
      "stateMutability": "nonpayable",
      "type": "function"
    },
    {
      "inputs": [
        {
          "internalType": "uint32",
          "name": "_dstEid",
          "type": "uint32"
        },
        {
          "internalType": "uint256",
          "name": "_amount",
          "type": "uint256"
        },
        {
          "internalType": "address",
          "name": "_composedAddress",
          "type": "address"
        },
        {
          "internalType": "bytes",
          "name": "_options",
          "type": "bytes"
        }
      ],
      "name": "withdraw",
      "outputs": [
        {
          "components": [
            {
              "internalType": "bytes32",
              "name": "guid",
              "type": "bytes32"
            },
            {
              "internalType": "uint64",
              "name": "nonce",
              "type": "uint64"
            },
            {
              "components": [
                {
                  "internalType": "uint256",
                  "name": "nativeFee",
                  "type": "uint256"
                },
                {
                  "internalType": "uint256",
                  "name": "lzTokenFee",
                  "type": "uint256"
                }
              ],
              "internalType": "struct MessagingFee",
              "name": "fee",
              "type": "tuple"
            }
          ],
          "internalType": "struct MessagingReceipt",
          "name": "receipt",
          "type": "tuple"
        }
      ],
      "stateMutability": "payable",
      "type": "function"
    },
    {
      "stateMutability": "payable",
      "type": "receive"
    }
  ],
  "transactionHash": "0xe96c6423094eba226fcad518f47de04e179adb8ac02cfb3d532de3b50161051e",
  "args": [
    "0x6C7Ab2202C98C4227C5c46f1417D81144DA716Ff",
    "0xcC2042a7c7997a04e26389B9689f2AE766342732"
  ],
  "numDeployments": 1,
  "solcInputHash": "6772f8fef9730117e58cd95f1eaeccb0",
  "bytecode": "0x60e0604052601560a09081527f4e6f7468696e67207265636569766564207965742e000000000000000000000060c0526003906200003e908262000241565b503480156200004c57600080fd5b5060405162002eff38038062002eff8339810160408190526200006f916200032a565b81818181806001600160a01b038116620000a357604051631e4fbdf760e01b81526000600482015260240160405180910390fd5b620000ae816200014a565b506001600160a01b038083166080528116620000dd57604051632d618d8160e21b815260040160405180910390fd5b60805160405163ca5eb5e160e01b81526001600160a01b0383811660048301529091169063ca5eb5e190602401600060405180830381600087803b1580156200012557600080fd5b505af11580156200013a573d6000803e3d6000fd5b5050505050505050505062000362565b600080546001600160a01b038381166001600160a01b0319831681178455604051919092169283917f8be0079c531659141344cd1fd0a4f28419497f9722a3daafe3b4186f6b6457e09190a35050565b634e487b7160e01b600052604160045260246000fd5b600181811c90821680620001c557607f821691505b602082108103620001e657634e487b7160e01b600052602260045260246000fd5b50919050565b601f8211156200023c576000816000526020600020601f850160051c81016020861015620002175750805b601f850160051c820191505b81811015620002385782815560010162000223565b5050505b505050565b81516001600160401b038111156200025d576200025d6200019a565b62000275816200026e8454620001b0565b84620001ec565b602080601f831160018114620002ad5760008415620002945750858301515b600019600386901b1c1916600185901b17855562000238565b600085815260208120601f198616915b82811015620002de57888601518255948401946001909101908401620002bd565b5085821015620002fd5787850151600019600388901b60f8161c191681555b5050505050600190811b01905550565b80516001600160a01b03811681146200032557600080fd5b919050565b600080604083850312156200033e57600080fd5b62000349836200030d565b915062000359602084016200030d565b90509250929050565b608051612b50620003af6000396000818161033a015281816106c501528181611102015281816112ba015281816113a80152818161198201528181611a240152611add0152612b506000f3fe6080604052600436106101d15760003560e01c806382413eac116100f7578063bc70b35411610095578063e9d99d7111610064578063e9d99d711461064e578063f2fde38b1461066e578063fe59cc9e1461068e578063ff7bd03d146106a357600080fd5b8063bc70b35414610558578063ca5eb5e114610578578063d0fe00db14610598578063dd047f1d1461063957600080fd5b8063ae67767c116100d1578063ae67767c1461047b578063b7f06ebe1461049b578063b98bd0701461050b578063bb0b6a531461052b57600080fd5b806382413eac146104095780638da5cb5b14610448578063954308db1461046657600080fd5b80635163e3c21161016f57806373d4a13a1161013e57806373d4a13a1461038957806375a2aa171461039e5780637d25a05e146103b15780637e49b465146103e957600080fd5b80635163e3c2146102d45780635535d461146102fb5780635e280f1114610328578063715018a61461037457600080fd5b80631c358aad116101ab5780631c358aad146102545780632c48ac95146102745780633400288b146102a157806349e09b86146102c157600080fd5b80630483a7f6146101dd57806313137d651461021d57806317442b701461023257600080fd5b366101d857005b600080fd5b3480156101e957600080fd5b5061020a6101f8366004611e10565b60046020526000908152604090205481565b6040519081526020015b60405180910390f35b61023061022b366004611e94565b6106c3565b005b34801561023e57600080fd5b5060408051600181526002602082015201610214565b610267610262366004611f4c565b610783565b6040516102149190611fbc565b34801561028057600080fd5b5061029461028f36600461200e565b6109ef565b604051610214919061205d565b3480156102ad57600080fd5b506102306102bc366004612074565b610a84565b6102676102cf366004611f4c565b610a9a565b3480156102e057600080fd5b506102e9600481565b60405160ff9091168152602001610214565b34801561030757600080fd5b5061031b6103163660046120b0565b610d10565b6040516102149190612133565b34801561033457600080fd5b5061035c7f000000000000000000000000000000000000000000000000000000000000000081565b6040516001600160a01b039091168152602001610214565b34801561038057600080fd5b50610230610db5565b34801561039557600080fd5b5061031b610dc9565b6102306103ac36600461200e565b610dd6565b3480156103bd57600080fd5b506103d16103cc366004612074565b610e89565b6040516001600160401b039091168152602001610214565b3480156103f557600080fd5b50610294610404366004612223565b610e92565b34801561041557600080fd5b5061043861042436600461228c565b6001600160a01b0381163014949350505050565b6040519015158152602001610214565b34801561045457600080fd5b506000546001600160a01b031661035c565b34801561047257600080fd5b506102e9600281565b34801561048757600080fd5b50610294610496366004612303565b610ec2565b3480156104a757600080fd5b506104e46104b63660046123a0565b6005602052600090815260409020805460018201546002909201546001600160a01b03909116919060ff1683565b604080516001600160a01b0390941684526020840192909252151590820152606001610214565b34801561051757600080fd5b506102306105263660046123b9565b610f19565b34801561053757600080fd5b5061020a61054636600461242d565b60016020526000908152604090205481565b34801561056457600080fd5b5061031b610573366004612448565b610f33565b34801561058457600080fd5b50610230610593366004611e10565b6110db565b3480156105a457600080fd5b5061060c6105b33660046123a0565b60408051606080820183526000808352602080840182905292840181905293845260058252928290208251938401835280546001600160a01b031684526001810154918401919091526002015460ff1615159082015290565b6040805182516001600160a01b031681526020808401519082015291810151151590820152606001610214565b34801561064557600080fd5b506102e9600181565b34801561065a57600080fd5b50610294610669366004612223565b611161565b34801561067a57600080fd5b50610230610689366004611e10565b611186565b34801561069a57600080fd5b506102e9600381565b3480156106af57600080fd5b506104386106be3660046124a8565b6111c4565b7f00000000000000000000000000000000000000000000000000000000000000006001600160a01b03163314610713576040516391ac5e4f60e01b81523360048201526024015b60405180910390fd5b6020870180359061072d90610728908a61242d565b6111fa565b1461076b5761073f602088018861242d565b60405163309afaf360e21b815263ffffffff90911660048201526020880135602482015260440161070a565b61077a87878787878787611236565b50505050505050565b61078b611db4565b843410156107d35760405162461bcd60e51b8152602060048201526015602482015274125b9cdd59999a58da595b9d08115512081cd95b9d605a1b604482015260640161070a565b600085116108235760405162461bcd60e51b815260206004820152601c60248201527f4d757374207374616b65206120706f73697469766520616d6f756e7400000000604482015260640161070a565b600061086a87600188338989898080601f01602080910402602001604051908101604052809392919081815260200183838082843760009201829052509250610ec2915050565b805190915061087a9087906124da565b3410156108c15760405162461bcd60e51b8152602060048201526015602482015274125b9cdd59999a58da595b9d08115512081cd95b9d605a1b604482015260640161070a565b33600090815260046020526040812080548892906108e09084906124da565b909155505060405160009061090090600190899033908a906020016124ed565b60408051601f198184030181526020601f88018190048102840181019092528683529250610951918a9184919089908990819084018382808284376000920191909152508892503391506112879050565b60405188815290935033907f2da466a7b24304f47e87fa2e1e5a81b9831ce54fec19055ce277ca2f39ba42c49060200160405180910390a2604080518881526001600160a01b038816602082015263ffffffff8a16918101919091526001606082015233907f472410feb1d25cdb8c63901468a813d759fcc6995a90f599b709df45b9b0a274906080015b60405180910390a2505095945050505050565b6040805180820190915260008082526020820152600082610a11576004610a14565b60035b905060008185876000604051602001610a3094939291906124ed565b60405160208183030381529060405290506000600162030d40604051602001610a5a929190612519565b6040516020818303038152906040529050610a788883836000611392565b98975050505050505050565b610a8c61146a565b610a968282611497565b5050565b610aa2611db4565b33600090815260046020526040902054851115610af85760405162461bcd60e51b8152602060048201526014602482015273496e73756666696369656e742062616c616e636560601b604482015260640161070a565b60008511610b485760405162461bcd60e51b815260206004820152601f60248201527f4d757374207769746864726177206120706f73697469766520616d6f756e7400604482015260640161070a565b6000610b8f87600288338989898080601f01602080910402602001604051908101604052809392919081815260200183838082843760009201829052509250610ec2915050565b8051909150341015610bb35760405162461bcd60e51b815260040161070a9061254c565b60006002873388604051602001610bcd94939291906124ed565b60408051601f198184030181526020601f88018190048102840181019092528683529250610c1e918a9184919089908990819084018382808284376000920191909152508892503391506112879050565b604080516060810182523380825260208083018c815260018486018181528751600090815260058552879020955186546001600160a01b0319166001600160a01b03909116178655915190850155516002909301805460ff191693151593909317909255835192518b815293965091927f6a7d57d9deb734ddc35637a94f2f0511da31a072947def8e52f9b0502fc45b78910160405180910390a3604080518881526001600160a01b038816602082015263ffffffff8a16918101919091526002606082015233907f472410feb1d25cdb8c63901468a813d759fcc6995a90f599b709df45b9b0a274906080016109dc565b600260209081526000928352604080842090915290825290208054610d3490612583565b80601f0160208091040260200160405190810160405280929190818152602001828054610d6090612583565b8015610dad5780601f10610d8257610100808354040283529160200191610dad565b820191906000526020600020905b815481529060010190602001808311610d9057829003601f168201915b505050505081565b610dbd61146a565b610dc760006114ec565b565b60038054610d3490612583565b600081610de4576004610de7565b60035b905060008184866000604051602001610e0394939291906124ed565b60405160208183030381529060405290506000600162030d40604051602001610e2d929190612519565b60405160208183030381529060405290506000610e4d8884846000611392565b8051909150341015610e715760405162461bcd60e51b815260040161070a9061254c565b610e7e8884848433611287565b505050505050505050565b60005b92915050565b6040805180820190915260008082526020820152610eb7856002863387876000610ec2565b90505b949350505050565b6040805180820190915260008082526020820152600087878787604051602001610eef94939291906124ed565b6040516020818303038152906040529050610f0c89828686611392565b9998505050505050505050565b610f2161146a565b610a96610f2e82846125b7565b61153c565b63ffffffff8416600090815260026020908152604080832061ffff87168452909152812080546060929190610f6790612583565b80601f0160208091040260200160405190810160405280929190818152602001828054610f9390612583565b8015610fe05780601f10610fb557610100808354040283529160200191610fe0565b820191906000526020600020905b815481529060010190602001808311610fc357829003601f168201915b5050505050905080516000036110305783838080601f016020809104026020016040519081016040528093929190818152602001838380828437600092019190915250929450610eba9350505050565b6000839003611040579050610eba565b600283106110be5761108784848080601f01602080910402602001604051908101604052809392919081815260200183838082843760009201919091525061164e92505050565b80611095846002818861268c565b6040516020016110a7939291906126b6565b604051602081830303815290604052915050610eba565b8383604051639a6d49cd60e01b815260040161070a9291906126de565b6110e361146a565b60405163ca5eb5e160e01b81526001600160a01b0382811660048301527f0000000000000000000000000000000000000000000000000000000000000000169063ca5eb5e190602401600060405180830381600087803b15801561114657600080fd5b505af115801561115a573d6000803e3d6000fd5b5050505050565b6040805180820190915260008082526020820152610eb7856001863387876000610ec2565b61118e61146a565b6001600160a01b0381166111b857604051631e4fbdf760e01b81526000600482015260240161070a565b6111c1816114ec565b50565b60006020820180359060019083906111dc908661242d565b63ffffffff1681526020810191909152604001600020541492915050565b63ffffffff811660009081526001602052604081205480610e8c5760405163f6ff4fb760e01b815263ffffffff8416600482015260240161070a565b6000808080611247888a018a61270d565b9350935093509350600360ff168460ff160361126c57611267828461167a565b61127a565b61127a8b8b86868686611883565b5050505050505050505050565b61128f611db4565b600061129e84600001516119fa565b6020850151909150156112b8576112b88460200151611a20565b7f00000000000000000000000000000000000000000000000000000000000000006001600160a01b0316632637a450826040518060a001604052808b63ffffffff1681526020016113088c6111fa565b81526020018a815260200189815260200160008960200151111515815250866040518463ffffffff1660e01b8152600401611344929190612753565b60806040518083038185885af1158015611362573d6000803e3d6000fd5b50505050506040513d601f19601f82011682018060405250810190611387919061281a565b979650505050505050565b60408051808201909152600080825260208201527f00000000000000000000000000000000000000000000000000000000000000006001600160a01b031663ddc28c586040518060a001604052808863ffffffff1681526020016113f5896111fa565b8152602001878152602001868152602001851515815250306040518363ffffffff1660e01b815260040161142a929190612753565b6040805180830381865afa158015611446573d6000803e3d6000fd5b505050506040513d601f19601f82011682018060405250810190610eb79190612870565b6000546001600160a01b03163314610dc75760405163118cdaa760e01b815233600482015260240161070a565b63ffffffff8216600081815260016020908152604091829020849055815192835282018390527f238399d427b947898edb290f5ff0f9109849b1c3ba196a42e35f00c50a54b98b910160405180910390a15050565b600080546001600160a01b038381166001600160a01b0319831681178455604051919092169283917f8be0079c531659141344cd1fd0a4f28419497f9722a3daafe3b4186f6b6457e09190a35050565b60005b81518110156116135761156e82828151811061155d5761155d61288c565b60200260200101516040015161164e565b8181815181106115805761158061288c565b602002602001015160400151600260008484815181106115a2576115a261288c565b60200260200101516000015163ffffffff1663ffffffff16815260200190815260200160002060008484815181106115dc576115dc61288c565b60200260200101516020015161ffff1661ffff168152602001908152602001600020908161160a91906128f2565b5060010161153f565b507fbe4864a8e820971c0247f5992e2da559595f7bf076a21cb5928d443d2a13b6748160405161164391906129b1565b60405180910390a150565b600281015161ffff8116600314610a965781604051639a6d49cd60e01b815260040161070a9190612133565b7f1471eb6eb2c5e789fc3de43f8ce62938c7d1836ec861730447e2ada8fd81017b80546001600160a01b031916905560007f1471eb6eb2c5e789fc3de43f8ce62938c7d1836ec861730447e2ada8fd81017c8190557f1471eb6eb2c5e789fc3de43f8ce62938c7d1836ec861730447e2ada8fd81017d805460ff191690556001600160a01b03831681526004602052604081208054600192849291611720908490612a3c565b90915550506040516000906001600160a01b0385169084908381818185875af1925050503d8060008114611770576040519150601f19603f3d011682016040523d82523d6000602084013e611775565b606091505b50509050806117bc5760405162461bcd60e51b8152602060048201526013602482015272115512081d1c985b9cd9995c8819985a5b1959606a1b604482015260640161070a565b60408051808201909152601581527415da5d1a191c985dd85b081cdd58d8d95cdcd99d5b605a1b60208201526003906117f590826128f2565b50836001600160a01b03167f4281d82163c462bf16a7b9bccc85041bb7c6f87d6d5f3bb47351049d1beacd6c8460405161183191815260200190565b60405180910390a2836001600160a01b03167f7084f5476618d8e60b11ef0d7d3f06914655adb8793e28ff7f018d4c76d505d58460405161187491815260200190565b60405180910390a2505b505050565b600060ff85166001146118b65760405180604001604052806008815260200167574954484452415760c01b8152506118d7565b6040518060400160405280600781526020016611115413d4d25560ca1b8152505b9050806118e384611b02565b6040516020016118f4929190612a4f565b6040516020818303038152906040526003908161191191906128f2565b50600085858561192460208c018c61242d565b6040805160ff90951660208601528401929092526001600160a01b0316606083015263ffffffff16608082015260a0810188905260c00160408051601f1981840301815290829052633e5ac80960e11b825291506001600160a01b037f00000000000000000000000000000000000000000000000000000000000000001690637cb59012906119be9086908b906000908790600401612aab565b600060405180830381600087803b1580156119d857600080fd5b505af11580156119ec573d6000803e3d6000fd5b505050505050505050505050565b600081341015611a1c5760405162461bcd60e51b815260040161070a9061254c565b5090565b60007f00000000000000000000000000000000000000000000000000000000000000006001600160a01b031663e4fe1d946040518163ffffffff1660e01b8152600401602060405180830381865afa158015611a80573d6000803e3d6000fd5b505050506040513d601f19601f82011682018060405250810190611aa49190612ae6565b90506001600160a01b038116611acd576040516329b99a9560e11b815260040160405180910390fd5b610a966001600160a01b038216337f000000000000000000000000000000000000000000000000000000000000000085611ce3565b604080518082018252601081526f181899199a1a9b1b9c1cb0b131b232b360811b60208201528151602a80825260608281019094526001600160a01b0385169291600091602082018180368337019050509050600360fc1b81600081518110611b6d57611b6d61288c565b60200101906001600160f81b031916908160001a905350600f60fb1b81600181518110611b9c57611b9c61288c565b60200101906001600160f81b031916908160001a90535060005b6014811015611cda5782600485611bce84600c6124da565b60208110611bde57611bde61288c565b1a60f81b6001600160f81b031916901c60f81c60ff1681518110611c0457611c0461288c565b01602001516001600160f81b03191682611c1f836002612b03565b611c2a9060026124da565b81518110611c3a57611c3a61288c565b60200101906001600160f81b031916908160001a9053508284611c5e83600c6124da565b60208110611c6e57611c6e61288c565b825191901a600f16908110611c8557611c8561288c565b01602001516001600160f81b03191682611ca0836002612b03565b611cab9060036124da565b81518110611cbb57611cbb61288c565b60200101906001600160f81b031916908160001a905350600101611bb6565b50949350505050565b604080516001600160a01b0385811660248301528416604482015260648082018490528251808303909101815260849091019091526020810180516001600160e01b03166323b872dd60e01b179052611d3d908590611d43565b50505050565b600080602060008451602086016000885af180611d66576040513d6000823e3d81fd5b50506000513d91508115611d7e578060011415611d8b565b6001600160a01b0384163b155b15611d3d57604051635274afe760e01b81526001600160a01b038516600482015260240161070a565b60405180606001604052806000801916815260200160006001600160401b03168152602001611df6604051806040016040528060008152602001600081525090565b905290565b6001600160a01b03811681146111c157600080fd5b600060208284031215611e2257600080fd5b8135611e2d81611dfb565b9392505050565b600060608284031215611e4657600080fd5b50919050565b60008083601f840112611e5e57600080fd5b5081356001600160401b03811115611e7557600080fd5b602083019150836020828501011115611e8d57600080fd5b9250929050565b600080600080600080600060e0888a031215611eaf57600080fd5b611eb98989611e34565b96506060880135955060808801356001600160401b0380821115611edc57600080fd5b611ee88b838c01611e4c565b909750955060a08a01359150611efd82611dfb565b90935060c08901359080821115611f1357600080fd5b50611f208a828b01611e4c565b989b979a50959850939692959293505050565b803563ffffffff81168114611f4757600080fd5b919050565b600080600080600060808688031215611f6457600080fd5b611f6d86611f33565b9450602086013593506040860135611f8481611dfb565b925060608601356001600160401b03811115611f9f57600080fd5b611fab88828901611e4c565b969995985093965092949392505050565b6000608082019050825182526001600160401b0360208401511660208301526040830151611ff7604084018280518252602090810151910152565b5092915050565b80358015158114611f4757600080fd5b6000806000806080858703121561202457600080fd5b61202d85611f33565b9350602085013561203d81611dfb565b92506040850135915061205260608601611ffe565b905092959194509250565b815181526020808301519082015260408101610e8c565b6000806040838503121561208757600080fd5b61209083611f33565b946020939093013593505050565b803561ffff81168114611f4757600080fd5b600080604083850312156120c357600080fd5b6120cc83611f33565b91506120da6020840161209e565b90509250929050565b60005b838110156120fe5781810151838201526020016120e6565b50506000910152565b6000815180845261211f8160208601602086016120e3565b601f01601f19169290920160200192915050565b602081526000611e2d6020830184612107565b634e487b7160e01b600052604160045260246000fd5b604051606081016001600160401b038111828210171561217e5761217e612146565b60405290565b604051601f8201601f191681016001600160401b03811182821017156121ac576121ac612146565b604052919050565b600082601f8301126121c557600080fd5b81356001600160401b038111156121de576121de612146565b6121f1601f8201601f1916602001612184565b81815284602083860101111561220657600080fd5b816020850160208301376000918101602001919091529392505050565b6000806000806080858703121561223957600080fd5b61224285611f33565b935060208501359250604085013561225981611dfb565b915060608501356001600160401b0381111561227457600080fd5b612280878288016121b4565b91505092959194509250565b60008060008060a085870312156122a257600080fd5b6122ac8686611e34565b935060608501356001600160401b038111156122c757600080fd5b6122d387828801611e4c565b90945092505060808501356122e781611dfb565b939692955090935050565b803560ff81168114611f4757600080fd5b600080600080600080600060e0888a03121561231e57600080fd5b61232788611f33565b9650612335602089016122f2565b955060408801359450606088013561234c81611dfb565b9350608088013561235c81611dfb565b925060a08801356001600160401b0381111561237757600080fd5b6123838a828b016121b4565b92505061239260c08901611ffe565b905092959891949750929550565b6000602082840312156123b257600080fd5b5035919050565b600080602083850312156123cc57600080fd5b82356001600160401b03808211156123e357600080fd5b818501915085601f8301126123f757600080fd5b81358181111561240657600080fd5b8660208260051b850101111561241b57600080fd5b60209290920196919550909350505050565b60006020828403121561243f57600080fd5b611e2d82611f33565b6000806000806060858703121561245e57600080fd5b61246785611f33565b93506124756020860161209e565b925060408501356001600160401b0381111561249057600080fd5b61249c87828801611e4c565b95989497509550505050565b6000606082840312156124ba57600080fd5b611e2d8383611e34565b634e487b7160e01b600052601160045260246000fd5b80820180821115610e8c57610e8c6124c4565b60ff94909416845260208401929092526001600160a01b03908116604084015216606082015260800190565b60f09290921b6001600160f01b031916825260801b6fffffffffffffffffffffffffffffffff1916600282015260120190565b60208082526019908201527f496e73756666696369656e742045544820666f72206665657300000000000000604082015260600190565b600181811c9082168061259757607f821691505b602082108103611e4657634e487b7160e01b600052602260045260246000fd5b60006001600160401b03808411156125d1576125d1612146565b8360051b60206125e2818301612184565b8681529185019181810190368411156125fa57600080fd5b865b84811015612680578035868111156126145760008081fd5b880160603682900312156126285760008081fd5b61263061215c565b61263982611f33565b815261264686830161209e565b868201526040808301358981111561265e5760008081fd5b61266a368286016121b4565b91830191909152508452509183019183016125fc565b50979650505050505050565b6000808585111561269c57600080fd5b838611156126a957600080fd5b5050820193919092039150565b600084516126c88184602089016120e3565b8201838582376000930192835250909392505050565b60208152816020820152818360408301376000818301604090810191909152601f909201601f19160101919050565b6000806000806080858703121561272357600080fd5b61272c856122f2565b935060208501359250604085013561274381611dfb565b915060608501356122e781611dfb565b6040815263ffffffff8351166040820152602083015160608201526000604084015160a0608084015261278960e0840182612107565b90506060850151603f198483030160a08501526127a68282612107565b60809690960151151560c08501525050506001600160a01b039190911660209091015290565b6000604082840312156127de57600080fd5b604051604081018181106001600160401b038211171561280057612800612146565b604052825181526020928301519281019290925250919050565b60006080828403121561282c57600080fd5b61283461215c565b8251815260208301516001600160401b038116811461285257600080fd5b602082015261286484604085016127cc565b60408201529392505050565b60006040828403121561288257600080fd5b611e2d83836127cc565b634e487b7160e01b600052603260045260246000fd5b601f82111561187e576000816000526020600020601f850160051c810160208610156128cb5750805b601f850160051c820191505b818110156128ea578281556001016128d7565b505050505050565b81516001600160401b0381111561290b5761290b612146565b61291f816129198454612583565b846128a2565b602080601f831160018114612954576000841561293c5750858301515b600019600386901b1c1916600185901b1785556128ea565b600085815260208120601f198616915b8281101561298357888601518255948401946001909101908401612964565b50858210156129a15787850151600019600388901b60f8161c191681555b5050505050600190811b01905550565b600060208083018184528085518083526040925060408601915060408160051b87010184880160005b83811015612a2e57888303603f190185528151805163ffffffff1684528781015161ffff16888501528601516060878501819052612a1a81860183612107565b9689019694505050908601906001016129da565b509098975050505050505050565b81810381811115610e8c57610e8c6124c4565b6802932b1b2b4bb32b2160bd1b815260008351612a738160098501602088016120e3565b6b010333937b6903ab9b2b91d160a51b6009918401918201528351612a9f8160158401602088016120e3565b01601501949350505050565b60018060a01b038516815283602082015261ffff83166040820152608060608201526000612adc6080830184612107565b9695505050505050565b600060208284031215612af857600080fd5b8151611e2d81611dfb565b8082028115828204841417610e8c57610e8c6124c456fea2646970667358221220db00d2a448490b20676d1d255c460c650d1d914f551a1e0b663fe346fe29119564736f6c63430008160033",
  "devdoc": {
    "details": "Simplified for hackathon - only this contract handles LayerZero messaging",
    "errors": {
      "OwnableInvalidOwner(address)": [
        {
          "details": "The owner is not a valid owner account. (eg. `address(0)`)"
        }
      ],
      "OwnableUnauthorizedAccount(address)": [
        {
          "details": "The caller account is not authorized to perform an operation."
        }
      ],
      "SafeERC20FailedOperation(address)": [
        {
          "details": "An operation with an ERC-20 token failed."
        }
      ]
    },
    "kind": "dev",
    "methods": {
      "allowInitializePath((uint32,bytes32,uint64))": {
        "details": "This indicates to the endpoint that the OApp has enabled msgs for this particular path to be received.This defaults to assuming if a peer has been set, its initialized. Can be overridden by the OApp if there is other logic to determine this.",
        "params": {
          "origin": "The origin information containing the source endpoint and sender address."
        },
        "returns": {
          "_0": "Whether the path has been initialized."
        }
      },
      "combineOptions(uint32,uint16,bytes)": {
        "details": "If there is an enforced lzReceive option: - {gasLimit: 200k, msg.value: 1 ether} AND a caller supplies a lzReceive option: {gasLimit: 100k, msg.value: 0.5 ether} - The resulting options will be {gasLimit: 300k, msg.value: 1.5 ether} when the message is executed on the remote lzReceive() function.This presence of duplicated options is handled off-chain in the verifier/executor.",
        "params": {
          "_eid": "The endpoint ID.",
          "_extraOptions": "Additional options passed by the caller.",
          "_msgType": "The OAPP message type."
        },
        "returns": {
          "_0": "options The combination of caller specified options AND enforced options."
        }
      },
      "isComposeMsgSender((uint32,bytes32,uint64),bytes,address)": {
        "details": "_origin The origin information containing the source endpoint and sender address.  - srcEid: The source chain endpoint ID.  - sender: The sender address on the src chain.  - nonce: The nonce of the message._message The lzReceive payload.Applications can optionally choose to implement separate composeMsg senders that are NOT the bridging layer.The default sender IS the OAppReceiver implementer.",
        "params": {
          "_sender": "The sender address."
        },
        "returns": {
          "_0": "isSender Is a valid sender."
        }
      },
      "lzReceive((uint32,bytes32,uint64),bytes32,bytes,address,bytes)": {
        "details": "Entry point for receiving messages or packets from the endpoint.Entry point for receiving msg/packet from the LayerZero endpoint.",
        "params": {
          "_executor": "The address of the executor for the received message.",
          "_extraData": "Additional arbitrary data provided by the corresponding executor.",
          "_guid": "The unique identifier for the received LayerZero message.",
          "_message": "The payload of the received message.",
          "_origin": "The origin information containing the source endpoint and sender address.  - srcEid: The source chain endpoint ID.  - sender: The sender address on the src chain.  - nonce: The nonce of the message."
        }
      },
      "nextNonce(uint32,bytes32)": {
        "details": "_srcEid The source endpoint ID._sender The sender address.The path nonce starts from 1. If 0 is returned it means that there is NO nonce ordered enforcement.Is required by the off-chain executor to determine the OApp expects msg execution is ordered.This is also enforced by the OApp.By default this is NOT enabled. ie. nextNonce is hardcoded to return 0.",
        "returns": {
          "nonce": "The next nonce."
        }
      },
      "oAppVersion()": {
        "returns": {
          "receiverVersion": "The version of the OAppReceiver.sol implementation.",
          "senderVersion": "The version of the OAppSender.sol implementation."
        }
      },
      "owner()": {
        "details": "Returns the address of the current owner."
      },
      "renounceOwnership()": {
        "details": "Leaves the contract without owner. It will not be possible to call `onlyOwner` functions. Can only be called by the current owner. NOTE: Renouncing ownership will leave the contract without an owner, thereby disabling any functionality that is only available to the owner."
      },
      "send(uint32,address,uint256,bool)": {
        "params": {
          "_amount": "Amount",
          "_dstEid": "Destination endpoint ID (source chain)",
          "_success": "Whether withdrawal was successful",
          "_user": "User address"
        }
      },
      "setDelegate(address)": {
        "details": "Only the owner/admin of the OApp can call this function.Provides the ability for a delegate to set configs, on behalf of the OApp, directly on the Endpoint contract.",
        "params": {
          "_delegate": "The address of the delegate to be set."
        }
      },
      "setEnforcedOptions((uint32,uint16,bytes)[])": {
        "details": "Sets the enforced options for specific endpoint and message type combinations.Only the owner/admin of the OApp can call this function.Provides a way for the OApp to enforce things like paying for PreCrime, AND/OR minimum dst lzReceive gas amounts etc.These enforced options can vary as the potential options/execution on the remote may differ as per the msgType. eg. Amount of lzReceive() gas necessary to deliver a lzCompose() message adds overhead you dont want to pay if you are only making a standard LayerZero message ie. lzReceive() WITHOUT sendCompose().",
        "params": {
          "_enforcedOptions": "An array of EnforcedOptionParam structures specifying enforced options."
        }
      },
      "setPeer(uint32,bytes32)": {
        "details": "Only the owner/admin of the OApp can call this function.Indicates that the peer is trusted to send LayerZero messages to this OApp.Set this to bytes32(0) to remove the peer address.Peer is a bytes32 to accommodate non-evm chains.",
        "params": {
          "_eid": "The endpoint ID.",
          "_peer": "The address of the peer to be associated with the corresponding endpoint."
        }
      },
      "transferOwnership(address)": {
        "details": "Transfers ownership of the contract to a new account (`newOwner`). Can only be called by the current owner."
      }
    },
    "title": "AnyStake",
    "version": 1
  },
  "userdoc": {
    "kind": "user",
    "methods": {
      "allowInitializePath((uint32,bytes32,uint64))": {
        "notice": "Checks if the path initialization is allowed based on the provided origin."
      },
      "combineOptions(uint32,uint16,bytes)": {
        "notice": "Combines options for a given endpoint and message type."
      },
      "deposit(uint32,uint256,address,bytes)": {
        "notice": "Stakes tokens by locking them and sending a cross-chain composed message"
      },
      "endpoint()": {
        "notice": "Retrieves the LayerZero endpoint associated with the OApp."
      },
      "getDepositQuote(uint32,uint256,address,bytes)": {
        "notice": "Get the quote for a deposit operation"
      },
      "getPendingWithdrawal(bytes32)": {
        "notice": "Get pending withdrawal details"
      },
      "getSendQuote(uint32,address,uint256,bool)": {
        "notice": "Get quote for send function"
      },
      "getWithdrawQuote(uint32,uint256,address,bytes)": {
        "notice": "Get the quote for a withdraw operation"
      },
      "isComposeMsgSender((uint32,bytes32,uint64),bytes,address)": {
        "notice": "Indicates whether an address is an approved composeMsg sender to the Endpoint."
      },
      "nextNonce(uint32,bytes32)": {
        "notice": "Retrieves the next nonce for a given source endpoint and sender address."
      },
      "oAppVersion()": {
        "notice": "Retrieves the OApp version information."
      },
      "peers(uint32)": {
        "notice": "Retrieves the peer (OApp) associated with a corresponding endpoint."
      },
      "quote(uint32,uint8,uint256,address,address,bytes,bool)": {
        "notice": "Quotes the gas needed for messaging operations"
      },
      "send(uint32,address,uint256,bool)": {
        "notice": "Simple send function for StakeAggregator to call back to source"
      },
      "setDelegate(address)": {
        "notice": "Sets the delegate address for the OApp."
      },
      "setPeer(uint32,bytes32)": {
        "notice": "Sets the peer address (OApp instance) for a corresponding endpoint."
      },
      "withdraw(uint32,uint256,address,bytes)": {
        "notice": "Initiates withdrawal - tokens remain locked until confirmation"
      }
    },
    "notice": "A LayerZero OApp that handles all cross-chain messaging for hackathon",
    "version": 1
  },
  "storageLayout": {
    "storage": [
      {
        "astId": 1533,
        "contract": "contracts/AnyStake.sol:AnyStake",
        "label": "_owner",
        "offset": 0,
        "slot": "0",
        "type": "t_address"
      },
      {
        "astId": 785,
        "contract": "contracts/AnyStake.sol:AnyStake",
        "label": "peers",
        "offset": 0,
        "slot": "1",
        "type": "t_mapping(t_uint32,t_bytes32)"
      },
      {
        "astId": 1381,
        "contract": "contracts/AnyStake.sol:AnyStake",
        "label": "enforcedOptions",
        "offset": 0,
        "slot": "2",
        "type": "t_mapping(t_uint32,t_mapping(t_uint16,t_bytes_storage))"
      },
      {
        "astId": 2381,
        "contract": "contracts/AnyStake.sol:AnyStake",
        "label": "data",
        "offset": 0,
        "slot": "3",
        "type": "t_string_storage"
      },
      {
        "astId": 2385,
        "contract": "contracts/AnyStake.sol:AnyStake",
        "label": "lockedBalances",
        "offset": 0,
        "slot": "4",
        "type": "t_mapping(t_address,t_uint256)"
      },
      {
        "astId": 2390,
        "contract": "contracts/AnyStake.sol:AnyStake",
        "label": "pendingWithdrawals",
        "offset": 0,
        "slot": "5",
        "type": "t_mapping(t_bytes32,t_struct(PendingWithdrawal)2397_storage)"
      }
    ],
    "types": {
      "t_address": {
        "encoding": "inplace",
        "label": "address",
        "numberOfBytes": "20"
      },
      "t_bool": {
        "encoding": "inplace",
        "label": "bool",
        "numberOfBytes": "1"
      },
      "t_bytes32": {
        "encoding": "inplace",
        "label": "bytes32",
        "numberOfBytes": "32"
      },
      "t_bytes_storage": {
        "encoding": "bytes",
        "label": "bytes",
        "numberOfBytes": "32"
      },
      "t_mapping(t_address,t_uint256)": {
        "encoding": "mapping",
        "key": "t_address",
        "label": "mapping(address => uint256)",
        "numberOfBytes": "32",
        "value": "t_uint256"
      },
      "t_mapping(t_bytes32,t_struct(PendingWithdrawal)2397_storage)": {
        "encoding": "mapping",
        "key": "t_bytes32",
        "label": "mapping(bytes32 => struct AnyStake.PendingWithdrawal)",
        "numberOfBytes": "32",
        "value": "t_struct(PendingWithdrawal)2397_storage"
      },
      "t_mapping(t_uint16,t_bytes_storage)": {
        "encoding": "mapping",
        "key": "t_uint16",
        "label": "mapping(uint16 => bytes)",
        "numberOfBytes": "32",
        "value": "t_bytes_storage"
      },
      "t_mapping(t_uint32,t_bytes32)": {
        "encoding": "mapping",
        "key": "t_uint32",
        "label": "mapping(uint32 => bytes32)",
        "numberOfBytes": "32",
        "value": "t_bytes32"
      },
      "t_mapping(t_uint32,t_mapping(t_uint16,t_bytes_storage))": {
        "encoding": "mapping",
        "key": "t_uint32",
        "label": "mapping(uint32 => mapping(uint16 => bytes))",
        "numberOfBytes": "32",
        "value": "t_mapping(t_uint16,t_bytes_storage)"
      },
      "t_string_storage": {
        "encoding": "bytes",
        "label": "string",
        "numberOfBytes": "32"
      },
      "t_struct(PendingWithdrawal)2397_storage": {
        "encoding": "inplace",
        "label": "struct AnyStake.PendingWithdrawal",
        "members": [
          {
            "astId": 2392,
            "contract": "contracts/AnyStake.sol:AnyStake",
            "label": "user",
            "offset": 0,
            "slot": "0",
            "type": "t_address"
          },
          {
            "astId": 2394,
            "contract": "contracts/AnyStake.sol:AnyStake",
            "label": "amount",
            "offset": 0,
            "slot": "1",
            "type": "t_uint256"
          },
          {
            "astId": 2396,
            "contract": "contracts/AnyStake.sol:AnyStake",
            "label": "exists",
            "offset": 0,
            "slot": "2",
            "type": "t_bool"
          }
        ],
        "numberOfBytes": "96"
      },
      "t_uint16": {
        "encoding": "inplace",
        "label": "uint16",
        "numberOfBytes": "2"
      },
      "t_uint256": {
        "encoding": "inplace",
        "label": "uint256",
        "numberOfBytes": "32"
      },
      "t_uint32": {
        "encoding": "inplace",
        "label": "uint32",
        "numberOfBytes": "4"
      }
    }
  }
}