{
  "address": "0xE3BE4A81718390e4571B4415f27E0c3EEa09E701",
  "abi": [
    {
      "inputs": [
        {
          "internalType": "address",
          "name": "_endpoint",
          "type": "address"
        },
        {
          "internalType": "address",
          "name": "_delegate",
          "type": "address"
        }
      ],
      "stateMutability": "nonpayable",
      "type": "constructor"
    },
    {
      "inputs": [],
      "name": "InvalidDelegate",
      "type": "error"
    },
    {
      "inputs": [],
      "name": "InvalidEndpointCall",
      "type": "error"
    },
    {
      "inputs": [
        {
          "internalType": "bytes",
          "name": "options",
          "type": "bytes"
        }
      ],
      "name": "InvalidOptions",
      "type": "error"
    },
    {
      "inputs": [],
      "name": "LzTokenUnavailable",
      "type": "error"
    },
    {
      "inputs": [
        {
          "internalType": "uint32",
          "name": "eid",
          "type": "uint32"
        }
      ],
      "name": "NoPeer",
      "type": "error"
    },
    {
      "inputs": [
        {
          "internalType": "uint256",
          "name": "msgValue",
          "type": "uint256"
        }
      ],
      "name": "NotEnoughNative",
      "type": "error"
    },
    {
      "inputs": [
        {
          "internalType": "address",
          "name": "addr",
          "type": "address"
        }
      ],
      "name": "OnlyEndpoint",
      "type": "error"
    },
    {
      "inputs": [
        {
          "internalType": "uint32",
          "name": "eid",
          "type": "uint32"
        },
        {
          "internalType": "bytes32",
          "name": "sender",
          "type": "bytes32"
        }
      ],
      "name": "OnlyPeer",
      "type": "error"
    },
    {
      "inputs": [
        {
          "internalType": "address",
          "name": "owner",
          "type": "address"
        }
      ],
      "name": "OwnableInvalidOwner",
      "type": "error"
    },
    {
      "inputs": [
        {
          "internalType": "address",
          "name": "account",
          "type": "address"
        }
      ],
      "name": "OwnableUnauthorizedAccount",
      "type": "error"
    },
    {
      "inputs": [
        {
          "internalType": "address",
          "name": "token",
          "type": "address"
        }
      ],
      "name": "SafeERC20FailedOperation",
      "type": "error"
    },
    {
      "anonymous": false,
      "inputs": [
        {
          "indexed": true,
          "internalType": "address",
          "name": "user",
          "type": "address"
        },
        {
          "indexed": false,
          "internalType": "uint256",
          "name": "amount",
          "type": "uint256"
        },
        {
          "indexed": false,
          "internalType": "address",
          "name": "composedAddress",
          "type": "address"
        },
        {
          "indexed": false,
          "internalType": "uint32",
          "name": "dstEid",
          "type": "uint32"
        },
        {
          "indexed": false,
          "internalType": "uint8",
          "name": "operation",
          "type": "uint8"
        }
      ],
      "name": "ComposedMessageSent",
      "type": "event"
    },
    {
      "anonymous": false,
      "inputs": [
        {
          "indexed": true,
          "internalType": "address",
          "name": "user",
          "type": "address"
        },
        {
          "indexed": false,
          "internalType": "uint256",
          "name": "amount",
          "type": "uint256"
        }
      ],
      "name": "Deposited",
      "type": "event"
    },
    {
      "anonymous": false,
      "inputs": [
        {
          "components": [
            {
              "internalType": "uint32",
              "name": "eid",
              "type": "uint32"
            },
            {
              "internalType": "uint16",
              "name": "msgType",
              "type": "uint16"
            },
            {
              "internalType": "bytes",
              "name": "options",
              "type": "bytes"
            }
          ],
          "indexed": false,
          "internalType": "struct EnforcedOptionParam[]",
          "name": "_enforcedOptions",
          "type": "tuple[]"
        }
      ],
      "name": "EnforcedOptionSet",
      "type": "event"
    },
    {
      "anonymous": false,
      "inputs": [
        {
          "indexed": true,
          "internalType": "address",
          "name": "previousOwner",
          "type": "address"
        },
        {
          "indexed": true,
          "internalType": "address",
          "name": "newOwner",
          "type": "address"
        }
      ],
      "name": "OwnershipTransferred",
      "type": "event"
    },
    {
      "anonymous": false,
      "inputs": [
        {
          "indexed": false,
          "internalType": "uint32",
          "name": "eid",
          "type": "uint32"
        },
        {
          "indexed": false,
          "internalType": "bytes32",
          "name": "peer",
          "type": "bytes32"
        }
      ],
      "name": "PeerSet",
      "type": "event"
    },
    {
      "anonymous": false,
      "inputs": [
        {
          "indexed": true,
          "internalType": "address",
          "name": "user",
          "type": "address"
        },
        {
          "indexed": false,
          "internalType": "uint256",
          "name": "amount",
          "type": "uint256"
        }
      ],
      "name": "WithdrawalConfirmed",
      "type": "event"
    },
    {
      "anonymous": false,
      "inputs": [
        {
          "indexed": true,
          "internalType": "address",
          "name": "user",
          "type": "address"
        },
        {
          "indexed": false,
          "internalType": "uint256",
          "name": "amount",
          "type": "uint256"
        },
        {
          "indexed": true,
          "internalType": "bytes32",
          "name": "guid",
          "type": "bytes32"
        }
      ],
      "name": "WithdrawalInitiated",
      "type": "event"
    },
    {
      "anonymous": false,
      "inputs": [
        {
          "indexed": true,
          "internalType": "address",
          "name": "user",
          "type": "address"
        },
        {
          "indexed": false,
          "internalType": "uint256",
          "name": "amount",
          "type": "uint256"
        }
      ],
      "name": "Withdrawn",
      "type": "event"
    },
    {
      "inputs": [],
      "name": "OPERATION_DEPOSIT",
      "outputs": [
        {
          "internalType": "uint8",
          "name": "",
          "type": "uint8"
        }
      ],
      "stateMutability": "view",
      "type": "function"
    },
    {
      "inputs": [],
      "name": "OPERATION_WITHDRAW",
      "outputs": [
        {
          "internalType": "uint8",
          "name": "",
          "type": "uint8"
        }
      ],
      "stateMutability": "view",
      "type": "function"
    },
    {
      "inputs": [],
      "name": "OPERATION_WITHDRAW_FAILED",
      "outputs": [
        {
          "internalType": "uint8",
          "name": "",
          "type": "uint8"
        }
      ],
      "stateMutability": "view",
      "type": "function"
    },
    {
      "inputs": [],
      "name": "OPERATION_WITHDRAW_SUCCESS",
      "outputs": [
        {
          "internalType": "uint8",
          "name": "",
          "type": "uint8"
        }
      ],
      "stateMutability": "view",
      "type": "function"
    },
    {
      "inputs": [
        {
          "components": [
            {
              "internalType": "uint32",
              "name": "srcEid",
              "type": "uint32"
            },
            {
              "internalType": "bytes32",
              "name": "sender",
              "type": "bytes32"
            },
            {
              "internalType": "uint64",
              "name": "nonce",
              "type": "uint64"
            }
          ],
          "internalType": "struct Origin",
          "name": "origin",
          "type": "tuple"
        }
      ],
      "name": "allowInitializePath",
      "outputs": [
        {
          "internalType": "bool",
          "name": "",
          "type": "bool"
        }
      ],
      "stateMutability": "view",
      "type": "function"
    },
    {
      "inputs": [
        {
          "internalType": "uint32",
          "name": "_eid",
          "type": "uint32"
        },
        {
          "internalType": "uint16",
          "name": "_msgType",
          "type": "uint16"
        },
        {
          "internalType": "bytes",
          "name": "_extraOptions",
          "type": "bytes"
        }
      ],
      "name": "combineOptions",
      "outputs": [
        {
          "internalType": "bytes",
          "name": "",
          "type": "bytes"
        }
      ],
      "stateMutability": "view",
      "type": "function"
    },
    {
      "inputs": [],
      "name": "data",
      "outputs": [
        {
          "internalType": "string",
          "name": "",
          "type": "string"
        }
      ],
      "stateMutability": "view",
      "type": "function"
    },
    {
      "inputs": [
        {
          "internalType": "uint32",
          "name": "_dstEid",
          "type": "uint32"
        },
        {
          "internalType": "uint256",
          "name": "_amount",
          "type": "uint256"
        },
        {
          "internalType": "address",
          "name": "_composedAddress",
          "type": "address"
        },
        {
          "internalType": "bytes",
          "name": "_options",
          "type": "bytes"
        }
      ],
      "name": "deposit",
      "outputs": [
        {
          "components": [
            {
              "internalType": "bytes32",
              "name": "guid",
              "type": "bytes32"
            },
            {
              "internalType": "uint64",
              "name": "nonce",
              "type": "uint64"
            },
            {
              "components": [
                {
                  "internalType": "uint256",
                  "name": "nativeFee",
                  "type": "uint256"
                },
                {
                  "internalType": "uint256",
                  "name": "lzTokenFee",
                  "type": "uint256"
                }
              ],
              "internalType": "struct MessagingFee",
              "name": "fee",
              "type": "tuple"
            }
          ],
          "internalType": "struct MessagingReceipt",
          "name": "receipt",
          "type": "tuple"
        }
      ],
      "stateMutability": "payable",
      "type": "function"
    },
    {
      "inputs": [],
      "name": "endpoint",
      "outputs": [
        {
          "internalType": "contract ILayerZeroEndpointV2",
          "name": "",
          "type": "address"
        }
      ],
      "stateMutability": "view",
      "type": "function"
    },
    {
      "inputs": [
        {
          "internalType": "uint32",
          "name": "eid",
          "type": "uint32"
        },
        {
          "internalType": "uint16",
          "name": "msgType",
          "type": "uint16"
        }
      ],
      "name": "enforcedOptions",
      "outputs": [
        {
          "internalType": "bytes",
          "name": "enforcedOption",
          "type": "bytes"
        }
      ],
      "stateMutability": "view",
      "type": "function"
    },
    {
      "inputs": [
        {
          "internalType": "uint32",
          "name": "_dstEid",
          "type": "uint32"
        },
        {
          "internalType": "uint256",
          "name": "_amount",
          "type": "uint256"
        },
        {
          "internalType": "address",
          "name": "_composedAddress",
          "type": "address"
        },
        {
          "internalType": "bytes",
          "name": "_options",
          "type": "bytes"
        }
      ],
      "name": "getDepositQuote",
      "outputs": [
        {
          "components": [
            {
              "internalType": "uint256",
              "name": "nativeFee",
              "type": "uint256"
            },
            {
              "internalType": "uint256",
              "name": "lzTokenFee",
              "type": "uint256"
            }
          ],
          "internalType": "struct MessagingFee",
          "name": "fee",
          "type": "tuple"
        }
      ],
      "stateMutability": "view",
      "type": "function"
    },
    {
      "inputs": [
        {
          "internalType": "bytes32",
          "name": "_guid",
          "type": "bytes32"
        }
      ],
      "name": "getPendingWithdrawal",
      "outputs": [
        {
          "components": [
            {
              "internalType": "address",
              "name": "user",
              "type": "address"
            },
            {
              "internalType": "uint256",
              "name": "amount",
              "type": "uint256"
            },
            {
              "internalType": "bool",
              "name": "exists",
              "type": "bool"
            }
          ],
          "internalType": "struct AnyStake.PendingWithdrawal",
          "name": "",
          "type": "tuple"
        }
      ],
      "stateMutability": "view",
      "type": "function"
    },
    {
      "inputs": [
        {
          "internalType": "uint32",
          "name": "_dstEid",
          "type": "uint32"
        },
        {
          "internalType": "address",
          "name": "_user",
          "type": "address"
        },
        {
          "internalType": "uint256",
          "name": "_amount",
          "type": "uint256"
        },
        {
          "internalType": "bool",
          "name": "_success",
          "type": "bool"
        }
      ],
      "name": "getSendQuote",
      "outputs": [
        {
          "components": [
            {
              "internalType": "uint256",
              "name": "nativeFee",
              "type": "uint256"
            },
            {
              "internalType": "uint256",
              "name": "lzTokenFee",
              "type": "uint256"
            }
          ],
          "internalType": "struct MessagingFee",
          "name": "fee",
          "type": "tuple"
        }
      ],
      "stateMutability": "view",
      "type": "function"
    },
    {
      "inputs": [
        {
          "internalType": "uint32",
          "name": "_dstEid",
          "type": "uint32"
        },
        {
          "internalType": "uint256",
          "name": "_amount",
          "type": "uint256"
        },
        {
          "internalType": "address",
          "name": "_composedAddress",
          "type": "address"
        },
        {
          "internalType": "bytes",
          "name": "_options",
          "type": "bytes"
        }
      ],
      "name": "getWithdrawQuote",
      "outputs": [
        {
          "components": [
            {
              "internalType": "uint256",
              "name": "nativeFee",
              "type": "uint256"
            },
            {
              "internalType": "uint256",
              "name": "lzTokenFee",
              "type": "uint256"
            }
          ],
          "internalType": "struct MessagingFee",
          "name": "fee",
          "type": "tuple"
        }
      ],
      "stateMutability": "view",
      "type": "function"
    },
    {
      "inputs": [
        {
          "components": [
            {
              "internalType": "uint32",
              "name": "srcEid",
              "type": "uint32"
            },
            {
              "internalType": "bytes32",
              "name": "sender",
              "type": "bytes32"
            },
            {
              "internalType": "uint64",
              "name": "nonce",
              "type": "uint64"
            }
          ],
          "internalType": "struct Origin",
          "name": "",
          "type": "tuple"
        },
        {
          "internalType": "bytes",
          "name": "",
          "type": "bytes"
        },
        {
          "internalType": "address",
          "name": "_sender",
          "type": "address"
        }
      ],
      "name": "isComposeMsgSender",
      "outputs": [
        {
          "internalType": "bool",
          "name": "",
          "type": "bool"
        }
      ],
      "stateMutability": "view",
      "type": "function"
    },
    {
      "inputs": [
        {
          "internalType": "address",
          "name": "",
          "type": "address"
        }
      ],
      "name": "lockedBalances",
      "outputs": [
        {
          "internalType": "uint256",
          "name": "",
          "type": "uint256"
        }
      ],
      "stateMutability": "view",
      "type": "function"
    },
    {
      "inputs": [
        {
          "components": [
            {
              "internalType": "uint32",
              "name": "srcEid",
              "type": "uint32"
            },
            {
              "internalType": "bytes32",
              "name": "sender",
              "type": "bytes32"
            },
            {
              "internalType": "uint64",
              "name": "nonce",
              "type": "uint64"
            }
          ],
          "internalType": "struct Origin",
          "name": "_origin",
          "type": "tuple"
        },
        {
          "internalType": "bytes32",
          "name": "_guid",
          "type": "bytes32"
        },
        {
          "internalType": "bytes",
          "name": "_message",
          "type": "bytes"
        },
        {
          "internalType": "address",
          "name": "_executor",
          "type": "address"
        },
        {
          "internalType": "bytes",
          "name": "_extraData",
          "type": "bytes"
        }
      ],
      "name": "lzReceive",
      "outputs": [],
      "stateMutability": "payable",
      "type": "function"
    },
    {
      "inputs": [
        {
          "internalType": "uint32",
          "name": "",
          "type": "uint32"
        },
        {
          "internalType": "bytes32",
          "name": "",
          "type": "bytes32"
        }
      ],
      "name": "nextNonce",
      "outputs": [
        {
          "internalType": "uint64",
          "name": "nonce",
          "type": "uint64"
        }
      ],
      "stateMutability": "view",
      "type": "function"
    },
    {
      "inputs": [],
      "name": "oAppVersion",
      "outputs": [
        {
          "internalType": "uint64",
          "name": "senderVersion",
          "type": "uint64"
        },
        {
          "internalType": "uint64",
          "name": "receiverVersion",
          "type": "uint64"
        }
      ],
      "stateMutability": "pure",
      "type": "function"
    },
    {
      "inputs": [],
      "name": "owner",
      "outputs": [
        {
          "internalType": "address",
          "name": "",
          "type": "address"
        }
      ],
      "stateMutability": "view",
      "type": "function"
    },
    {
      "inputs": [
        {
          "internalType": "uint32",
          "name": "eid",
          "type": "uint32"
        }
      ],
      "name": "peers",
      "outputs": [
        {
          "internalType": "bytes32",
          "name": "peer",
          "type": "bytes32"
        }
      ],
      "stateMutability": "view",
      "type": "function"
    },
    {
      "inputs": [
        {
          "internalType": "bytes32",
          "name": "",
          "type": "bytes32"
        }
      ],
      "name": "pendingWithdrawals",
      "outputs": [
        {
          "internalType": "address",
          "name": "user",
          "type": "address"
        },
        {
          "internalType": "uint256",
          "name": "amount",
          "type": "uint256"
        },
        {
          "internalType": "bool",
          "name": "exists",
          "type": "bool"
        }
      ],
      "stateMutability": "view",
      "type": "function"
    },
    {
      "inputs": [
        {
          "internalType": "uint32",
          "name": "_dstEid",
          "type": "uint32"
        },
        {
          "internalType": "uint8",
          "name": "_operation",
          "type": "uint8"
        },
        {
          "internalType": "uint256",
          "name": "_amount",
          "type": "uint256"
        },
        {
          "internalType": "address",
          "name": "_user",
          "type": "address"
        },
        {
          "internalType": "address",
          "name": "_composedAddress",
          "type": "address"
        },
        {
          "internalType": "bytes",
          "name": "_options",
          "type": "bytes"
        },
        {
          "internalType": "bool",
          "name": "_payInLzToken",
          "type": "bool"
        }
      ],
      "name": "quote",
      "outputs": [
        {
          "components": [
            {
              "internalType": "uint256",
              "name": "nativeFee",
              "type": "uint256"
            },
            {
              "internalType": "uint256",
              "name": "lzTokenFee",
              "type": "uint256"
            }
          ],
          "internalType": "struct MessagingFee",
          "name": "fee",
          "type": "tuple"
        }
      ],
      "stateMutability": "view",
      "type": "function"
    },
    {
      "inputs": [],
      "name": "renounceOwnership",
      "outputs": [],
      "stateMutability": "nonpayable",
      "type": "function"
    },
    {
      "inputs": [
        {
          "internalType": "uint32",
          "name": "_dstEid",
          "type": "uint32"
        },
        {
          "internalType": "address",
          "name": "_user",
          "type": "address"
        },
        {
          "internalType": "uint256",
          "name": "_amount",
          "type": "uint256"
        },
        {
          "internalType": "bool",
          "name": "_success",
          "type": "bool"
        }
      ],
      "name": "send",
      "outputs": [],
      "stateMutability": "payable",
      "type": "function"
    },
    {
      "inputs": [
        {
          "internalType": "address",
          "name": "_delegate",
          "type": "address"
        }
      ],
      "name": "setDelegate",
      "outputs": [],
      "stateMutability": "nonpayable",
      "type": "function"
    },
    {
      "inputs": [
        {
          "components": [
            {
              "internalType": "uint32",
              "name": "eid",
              "type": "uint32"
            },
            {
              "internalType": "uint16",
              "name": "msgType",
              "type": "uint16"
            },
            {
              "internalType": "bytes",
              "name": "options",
              "type": "bytes"
            }
          ],
          "internalType": "struct EnforcedOptionParam[]",
          "name": "_enforcedOptions",
          "type": "tuple[]"
        }
      ],
      "name": "setEnforcedOptions",
      "outputs": [],
      "stateMutability": "nonpayable",
      "type": "function"
    },
    {
      "inputs": [
        {
          "internalType": "uint32",
          "name": "_eid",
          "type": "uint32"
        },
        {
          "internalType": "bytes32",
          "name": "_peer",
          "type": "bytes32"
        }
      ],
      "name": "setPeer",
      "outputs": [],
      "stateMutability": "nonpayable",
      "type": "function"
    },
    {
      "inputs": [
        {
          "internalType": "address",
          "name": "_stakingAggregator",
          "type": "address"
        }
      ],
      "name": "setStakingAggregator",
      "outputs": [],
      "stateMutability": "nonpayable",
      "type": "function"
    },
    {
      "inputs": [],
      "name": "stakingAggregator",
      "outputs": [
        {
          "internalType": "address",
          "name": "",
          "type": "address"
        }
      ],
      "stateMutability": "view",
      "type": "function"
    },
    {
      "inputs": [
        {
          "internalType": "address",
          "name": "newOwner",
          "type": "address"
        }
      ],
      "name": "transferOwnership",
      "outputs": [],
      "stateMutability": "nonpayable",
      "type": "function"
    },
    {
      "inputs": [
        {
          "internalType": "uint32",
          "name": "_dstEid",
          "type": "uint32"
        },
        {
          "internalType": "uint256",
          "name": "_amount",
          "type": "uint256"
        },
        {
          "internalType": "address",
          "name": "_composedAddress",
          "type": "address"
        },
        {
          "internalType": "bytes",
          "name": "_options",
          "type": "bytes"
        }
      ],
      "name": "withdraw",
      "outputs": [
        {
          "components": [
            {
              "internalType": "bytes32",
              "name": "guid",
              "type": "bytes32"
            },
            {
              "internalType": "uint64",
              "name": "nonce",
              "type": "uint64"
            },
            {
              "components": [
                {
                  "internalType": "uint256",
                  "name": "nativeFee",
                  "type": "uint256"
                },
                {
                  "internalType": "uint256",
                  "name": "lzTokenFee",
                  "type": "uint256"
                }
              ],
              "internalType": "struct MessagingFee",
              "name": "fee",
              "type": "tuple"
            }
          ],
          "internalType": "struct MessagingReceipt",
          "name": "receipt",
          "type": "tuple"
        }
      ],
      "stateMutability": "payable",
      "type": "function"
    },
    {
      "stateMutability": "payable",
      "type": "receive"
    }
  ],
  "transactionHash": "0x2233181e8e76f68c1d12ae49c3d2e60d60fde6d76e93451aba0be005f008e2fb",
  "args": [
    "0x6C7Ab2202C98C4227C5c46f1417D81144DA716Ff",
    "0xcC2042a7c7997a04e26389B9689f2AE766342732"
  ],
  "numDeployments": 1,
  "solcInputHash": "d69cb0740ec158c2bb45954ae9aaa2a6",
  "bytecode": "0x60e0604052601560a09081527f4e6f7468696e67207265636569766564207965742e000000000000000000000060c0526003906200003e908262000241565b503480156200004c57600080fd5b5060405162002fc738038062002fc78339810160408190526200006f916200032a565b81818181806001600160a01b038116620000a357604051631e4fbdf760e01b81526000600482015260240160405180910390fd5b620000ae816200014a565b506001600160a01b038083166080528116620000dd57604051632d618d8160e21b815260040160405180910390fd5b60805160405163ca5eb5e160e01b81526001600160a01b0383811660048301529091169063ca5eb5e190602401600060405180830381600087803b1580156200012557600080fd5b505af11580156200013a573d6000803e3d6000fd5b5050505050505050505062000362565b600080546001600160a01b038381166001600160a01b0319831681178455604051919092169283917f8be0079c531659141344cd1fd0a4f28419497f9722a3daafe3b4186f6b6457e09190a35050565b634e487b7160e01b600052604160045260246000fd5b600181811c90821680620001c557607f821691505b602082108103620001e657634e487b7160e01b600052602260045260246000fd5b50919050565b601f8211156200023c576000816000526020600020601f850160051c81016020861015620002175750805b601f850160051c820191505b81811015620002385782815560010162000223565b5050505b505050565b81516001600160401b038111156200025d576200025d6200019a565b62000275816200026e8454620001b0565b84620001ec565b602080601f831160018114620002ad5760008415620002945750858301515b600019600386901b1c1916600185901b17855562000238565b600085815260208120601f198616915b82811015620002de57888601518255948401946001909101908401620002bd565b5085821015620002fd5787850151600019600388901b60f8161c191681555b5050505050600190811b01905550565b80516001600160a01b03811681146200032557600080fd5b919050565b600080604083850312156200033e57600080fd5b62000349836200030d565b915062000359602084016200030d565b90509250929050565b608051612c18620003af600039600081816103880152818161071b01528181611158015281816113820152818161147001528181611a4a01528181611aec0152611ba50152612c186000f3fe6080604052600436106101e75760003560e01c806382413eac11610102578063ca5eb5e111610095578063e9d99d7111610064578063e9d99d71146106a4578063f2fde38b146106c4578063fe59cc9e146106e4578063ff7bd03d146106f957600080fd5b8063ca5eb5e1146105ae578063d0fe00db146105ce578063dd047f1d1461066f578063df5c666b1461068457600080fd5b8063b7f06ebe116100d1578063b7f06ebe146104d1578063b98bd07014610541578063bb0b6a5314610561578063bc70b3541461058e57600080fd5b806382413eac1461043f5780638da5cb5b1461047e578063954308db1461049c578063ae67767c146104b157600080fd5b80635163e3c21161017a57806373d4a13a1161014957806373d4a13a146103bf57806375a2aa17146103d45780637d25a05e146103e75780637e49b4651461041f57600080fd5b80635163e3c2146103225780635535d461146103495780635e280f1114610376578063715018a6146103aa57600080fd5b80632c48ac95116101b65780632c48ac951461028a5780633400288b146102b75780634870750a146102d757806349e09b861461030f57600080fd5b80630483a7f6146101f357806313137d651461023357806317442b70146102485780631c358aad1461026a57600080fd5b366101ee57005b600080fd5b3480156101ff57600080fd5b5061022061020e366004611ed8565b60046020526000908152604090205481565b6040519081526020015b60405180910390f35b610246610241366004611f5c565b610719565b005b34801561025457600080fd5b506040805160018152600260208201520161022a565b61027d610278366004612014565b6107d9565b60405161022a9190612084565b34801561029657600080fd5b506102aa6102a53660046120d6565b610a45565b60405161022a9190612125565b3480156102c357600080fd5b506102466102d236600461213c565b610ada565b3480156102e357600080fd5b506006546102f7906001600160a01b031681565b6040516001600160a01b03909116815260200161022a565b61027d61031d366004612014565b610af0565b34801561032e57600080fd5b50610337600481565b60405160ff909116815260200161022a565b34801561035557600080fd5b50610369610364366004612178565b610d66565b60405161022a91906121fb565b34801561038257600080fd5b506102f77f000000000000000000000000000000000000000000000000000000000000000081565b3480156103b657600080fd5b50610246610e0b565b3480156103cb57600080fd5b50610369610e1f565b6102466103e23660046120d6565b610e2c565b3480156103f357600080fd5b5061040761040236600461213c565b610edf565b6040516001600160401b03909116815260200161022a565b34801561042b57600080fd5b506102aa61043a3660046122eb565b610ee8565b34801561044b57600080fd5b5061046e61045a366004612354565b6001600160a01b0381163014949350505050565b604051901515815260200161022a565b34801561048a57600080fd5b506000546001600160a01b03166102f7565b3480156104a857600080fd5b50610337600281565b3480156104bd57600080fd5b506102aa6104cc3660046123cb565b610f18565b3480156104dd57600080fd5b5061051a6104ec366004612468565b6005602052600090815260409020805460018201546002909201546001600160a01b03909116919060ff1683565b604080516001600160a01b039094168452602084019290925215159082015260600161022a565b34801561054d57600080fd5b5061024661055c366004612481565b610f6f565b34801561056d57600080fd5b5061022061057c3660046124f5565b60016020526000908152604090205481565b34801561059a57600080fd5b506103696105a9366004612510565b610f89565b3480156105ba57600080fd5b506102466105c9366004611ed8565b611131565b3480156105da57600080fd5b506106426105e9366004612468565b60408051606080820183526000808352602080840182905292840181905293845260058252928290208251938401835280546001600160a01b031684526001810154918401919091526002015460ff1615159082015290565b6040805182516001600160a01b03168152602080840151908201529181015115159082015260600161022a565b34801561067b57600080fd5b50610337600181565b34801561069057600080fd5b5061024661069f366004611ed8565b6111b7565b3480156106b057600080fd5b506102aa6106bf3660046122eb565b611229565b3480156106d057600080fd5b506102466106df366004611ed8565b61124e565b3480156106f057600080fd5b50610337600381565b34801561070557600080fd5b5061046e610714366004612570565b61128c565b7f00000000000000000000000000000000000000000000000000000000000000006001600160a01b03163314610769576040516391ac5e4f60e01b81523360048201526024015b60405180910390fd5b602087018035906107839061077e908a6124f5565b6112c2565b146107c15761079560208801886124f5565b60405163309afaf360e21b815263ffffffff909116600482015260208801356024820152604401610760565b6107d0878787878787876112fe565b50505050505050565b6107e1611e7c565b843410156108295760405162461bcd60e51b8152602060048201526015602482015274125b9cdd59999a58da595b9d08115512081cd95b9d605a1b6044820152606401610760565b600085116108795760405162461bcd60e51b815260206004820152601c60248201527f4d757374207374616b65206120706f73697469766520616d6f756e74000000006044820152606401610760565b60006108c087600188338989898080601f01602080910402602001604051908101604052809392919081815260200183838082843760009201829052509250610f18915050565b80519091506108d09087906125a2565b3410156109175760405162461bcd60e51b8152602060048201526015602482015274125b9cdd59999a58da595b9d08115512081cd95b9d605a1b6044820152606401610760565b33600090815260046020526040812080548892906109369084906125a2565b909155505060405160009061095690600190899033908a906020016125b5565b60408051601f198184030181526020601f880181900481028401810190925286835292506109a7918a91849190899089908190840183828082843760009201919091525088925033915061134f9050565b60405188815290935033907f2da466a7b24304f47e87fa2e1e5a81b9831ce54fec19055ce277ca2f39ba42c49060200160405180910390a2604080518881526001600160a01b038816602082015263ffffffff8a16918101919091526001606082015233907f472410feb1d25cdb8c63901468a813d759fcc6995a90f599b709df45b9b0a274906080015b60405180910390a2505095945050505050565b6040805180820190915260008082526020820152600082610a67576004610a6a565b60035b905060008185876000604051602001610a8694939291906125b5565b60405160208183030381529060405290506000600162030d40604051602001610ab09291906125e1565b6040516020818303038152906040529050610ace888383600061145a565b98975050505050505050565b610ae2611532565b610aec828261155f565b5050565b610af8611e7c565b33600090815260046020526040902054851115610b4e5760405162461bcd60e51b8152602060048201526014602482015273496e73756666696369656e742062616c616e636560601b6044820152606401610760565b60008511610b9e5760405162461bcd60e51b815260206004820152601f60248201527f4d757374207769746864726177206120706f73697469766520616d6f756e74006044820152606401610760565b6000610be587600288338989898080601f01602080910402602001604051908101604052809392919081815260200183838082843760009201829052509250610f18915050565b8051909150341015610c095760405162461bcd60e51b815260040161076090612614565b60006002873388604051602001610c2394939291906125b5565b60408051601f198184030181526020601f88018190048102840181019092528683529250610c74918a91849190899089908190840183828082843760009201919091525088925033915061134f9050565b604080516060810182523380825260208083018c815260018486018181528751600090815260058552879020955186546001600160a01b0319166001600160a01b03909116178655915190850155516002909301805460ff191693151593909317909255835192518b815293965091927f6a7d57d9deb734ddc35637a94f2f0511da31a072947def8e52f9b0502fc45b78910160405180910390a3604080518881526001600160a01b038816602082015263ffffffff8a16918101919091526002606082015233907f472410feb1d25cdb8c63901468a813d759fcc6995a90f599b709df45b9b0a27490608001610a32565b600260209081526000928352604080842090915290825290208054610d8a9061264b565b80601f0160208091040260200160405190810160405280929190818152602001828054610db69061264b565b8015610e035780601f10610dd857610100808354040283529160200191610e03565b820191906000526020600020905b815481529060010190602001808311610de657829003601f168201915b505050505081565b610e13611532565b610e1d60006115b4565b565b60038054610d8a9061264b565b600081610e3a576004610e3d565b60035b905060008184866000604051602001610e5994939291906125b5565b60405160208183030381529060405290506000600162030d40604051602001610e839291906125e1565b60405160208183030381529060405290506000610ea3888484600061145a565b8051909150341015610ec75760405162461bcd60e51b815260040161076090612614565b610ed4888484843361134f565b505050505050505050565b60005b92915050565b6040805180820190915260008082526020820152610f0d856002863387876000610f18565b90505b949350505050565b6040805180820190915260008082526020820152600087878787604051602001610f4594939291906125b5565b6040516020818303038152906040529050610f628982868661145a565b9998505050505050505050565b610f77611532565b610aec610f84828461267f565b611604565b63ffffffff8416600090815260026020908152604080832061ffff87168452909152812080546060929190610fbd9061264b565b80601f0160208091040260200160405190810160405280929190818152602001828054610fe99061264b565b80156110365780601f1061100b57610100808354040283529160200191611036565b820191906000526020600020905b81548152906001019060200180831161101957829003601f168201915b5050505050905080516000036110865783838080601f016020809104026020016040519081016040528093929190818152602001838380828437600092019190915250929450610f109350505050565b6000839003611096579050610f10565b60028310611114576110dd84848080601f01602080910402602001604051908101604052809392919081815260200183838082843760009201919091525061171692505050565b806110eb8460028188612754565b6040516020016110fd9392919061277e565b604051602081830303815290604052915050610f10565b8383604051639a6d49cd60e01b81526004016107609291906127a6565b611139611532565b60405163ca5eb5e160e01b81526001600160a01b0382811660048301527f0000000000000000000000000000000000000000000000000000000000000000169063ca5eb5e190602401600060405180830381600087803b15801561119c57600080fd5b505af11580156111b0573d6000803e3d6000fd5b5050505050565b6111bf611532565b6001600160a01b0381166112075760405162461bcd60e51b815260206004820152600f60248201526e496e76616c6964206164647265737360881b6044820152606401610760565b600680546001600160a01b0319166001600160a01b0392909216919091179055565b6040805180820190915260008082526020820152610f0d856001863387876000610f18565b611256611532565b6001600160a01b03811661128057604051631e4fbdf760e01b815260006004820152602401610760565b611289816115b4565b50565b60006020820180359060019083906112a490866124f5565b63ffffffff1681526020810191909152604001600020541492915050565b63ffffffff811660009081526001602052604081205480610ee25760405163f6ff4fb760e01b815263ffffffff84166004820152602401610760565b600080808061130f888a018a6127d5565b9350935093509350600360ff168460ff16036113345761132f8284611742565b611342565b6113428b8b8686868661194b565b5050505050505050505050565b611357611e7c565b60006113668460000151611ac2565b602085015190915015611380576113808460200151611ae8565b7f00000000000000000000000000000000000000000000000000000000000000006001600160a01b0316632637a450826040518060a001604052808b63ffffffff1681526020016113d08c6112c2565b81526020018a815260200189815260200160008960200151111515815250866040518463ffffffff1660e01b815260040161140c92919061281b565b60806040518083038185885af115801561142a573d6000803e3d6000fd5b50505050506040513d601f19601f8201168201806040525081019061144f91906128e2565b979650505050505050565b60408051808201909152600080825260208201527f00000000000000000000000000000000000000000000000000000000000000006001600160a01b031663ddc28c586040518060a001604052808863ffffffff1681526020016114bd896112c2565b8152602001878152602001868152602001851515815250306040518363ffffffff1660e01b81526004016114f292919061281b565b6040805180830381865afa15801561150e573d6000803e3d6000fd5b505050506040513d601f19601f82011682018060405250810190610f0d9190612938565b6000546001600160a01b03163314610e1d5760405163118cdaa760e01b8152336004820152602401610760565b63ffffffff8216600081815260016020908152604091829020849055815192835282018390527f238399d427b947898edb290f5ff0f9109849b1c3ba196a42e35f00c50a54b98b910160405180910390a15050565b600080546001600160a01b038381166001600160a01b0319831681178455604051919092169283917f8be0079c531659141344cd1fd0a4f28419497f9722a3daafe3b4186f6b6457e09190a35050565b60005b81518110156116db5761163682828151811061162557611625612954565b602002602001015160400151611716565b81818151811061164857611648612954565b6020026020010151604001516002600084848151811061166a5761166a612954565b60200260200101516000015163ffffffff1663ffffffff16815260200190815260200160002060008484815181106116a4576116a4612954565b60200260200101516020015161ffff1661ffff16815260200190815260200160002090816116d291906129ba565b50600101611607565b507fbe4864a8e820971c0247f5992e2da559595f7bf076a21cb5928d443d2a13b6748160405161170b9190612a79565b60405180910390a150565b600281015161ffff8116600314610aec5781604051639a6d49cd60e01b815260040161076091906121fb565b7f1471eb6eb2c5e789fc3de43f8ce62938c7d1836ec861730447e2ada8fd81017b80546001600160a01b031916905560007f1471eb6eb2c5e789fc3de43f8ce62938c7d1836ec861730447e2ada8fd81017c8190557f1471eb6eb2c5e789fc3de43f8ce62938c7d1836ec861730447e2ada8fd81017d805460ff191690556001600160a01b038316815260046020526040812080546001928492916117e8908490612b04565b90915550506040516000906001600160a01b0385169084908381818185875af1925050503d8060008114611838576040519150601f19603f3d011682016040523d82523d6000602084013e61183d565b606091505b50509050806118845760405162461bcd60e51b8152602060048201526013602482015272115512081d1c985b9cd9995c8819985a5b1959606a1b6044820152606401610760565b60408051808201909152601581527415da5d1a191c985dd85b081cdd58d8d95cdcd99d5b605a1b60208201526003906118bd90826129ba565b50836001600160a01b03167f4281d82163c462bf16a7b9bccc85041bb7c6f87d6d5f3bb47351049d1beacd6c846040516118f991815260200190565b60405180910390a2836001600160a01b03167f7084f5476618d8e60b11ef0d7d3f06914655adb8793e28ff7f018d4c76d505d58460405161193c91815260200190565b60405180910390a2505b505050565b600060ff851660011461197e5760405180604001604052806008815260200167574954484452415760c01b81525061199f565b6040518060400160405280600781526020016611115413d4d25560ca1b8152505b9050806119ab84611bca565b6040516020016119bc929190612b17565b604051602081830303815290604052600390816119d991906129ba565b5060008585856119ec60208c018c6124f5565b6040805160ff90951660208601528401929092526001600160a01b0316606083015263ffffffff16608082015260a0810188905260c00160408051601f1981840301815290829052633e5ac80960e11b825291506001600160a01b037f00000000000000000000000000000000000000000000000000000000000000001690637cb5901290611a869086908b906000908790600401612b73565b600060405180830381600087803b158015611aa057600080fd5b505af1158015611ab4573d6000803e3d6000fd5b505050505050505050505050565b600081341015611ae45760405162461bcd60e51b815260040161076090612614565b5090565b60007f00000000000000000000000000000000000000000000000000000000000000006001600160a01b031663e4fe1d946040518163ffffffff1660e01b8152600401602060405180830381865afa158015611b48573d6000803e3d6000fd5b505050506040513d601f19601f82011682018060405250810190611b6c9190612bae565b90506001600160a01b038116611b95576040516329b99a9560e11b815260040160405180910390fd5b610aec6001600160a01b038216337f000000000000000000000000000000000000000000000000000000000000000085611dab565b604080518082018252601081526f181899199a1a9b1b9c1cb0b131b232b360811b60208201528151602a80825260608281019094526001600160a01b0385169291600091602082018180368337019050509050600360fc1b81600081518110611c3557611c35612954565b60200101906001600160f81b031916908160001a905350600f60fb1b81600181518110611c6457611c64612954565b60200101906001600160f81b031916908160001a90535060005b6014811015611da25782600485611c9684600c6125a2565b60208110611ca657611ca6612954565b1a60f81b6001600160f81b031916901c60f81c60ff1681518110611ccc57611ccc612954565b01602001516001600160f81b03191682611ce7836002612bcb565b611cf29060026125a2565b81518110611d0257611d02612954565b60200101906001600160f81b031916908160001a9053508284611d2683600c6125a2565b60208110611d3657611d36612954565b825191901a600f16908110611d4d57611d4d612954565b01602001516001600160f81b03191682611d68836002612bcb565b611d739060036125a2565b81518110611d8357611d83612954565b60200101906001600160f81b031916908160001a905350600101611c7e565b50949350505050565b604080516001600160a01b0385811660248301528416604482015260648082018490528251808303909101815260849091019091526020810180516001600160e01b03166323b872dd60e01b179052611e05908590611e0b565b50505050565b600080602060008451602086016000885af180611e2e576040513d6000823e3d81fd5b50506000513d91508115611e46578060011415611e53565b6001600160a01b0384163b155b15611e0557604051635274afe760e01b81526001600160a01b0385166004820152602401610760565b60405180606001604052806000801916815260200160006001600160401b03168152602001611ebe604051806040016040528060008152602001600081525090565b905290565b6001600160a01b038116811461128957600080fd5b600060208284031215611eea57600080fd5b8135611ef581611ec3565b9392505050565b600060608284031215611f0e57600080fd5b50919050565b60008083601f840112611f2657600080fd5b5081356001600160401b03811115611f3d57600080fd5b602083019150836020828501011115611f5557600080fd5b9250929050565b600080600080600080600060e0888a031215611f7757600080fd5b611f818989611efc565b96506060880135955060808801356001600160401b0380821115611fa457600080fd5b611fb08b838c01611f14565b909750955060a08a01359150611fc582611ec3565b90935060c08901359080821115611fdb57600080fd5b50611fe88a828b01611f14565b989b979a50959850939692959293505050565b803563ffffffff8116811461200f57600080fd5b919050565b60008060008060006080868803121561202c57600080fd5b61203586611ffb565b945060208601359350604086013561204c81611ec3565b925060608601356001600160401b0381111561206757600080fd5b61207388828901611f14565b969995985093965092949392505050565b6000608082019050825182526001600160401b03602084015116602083015260408301516120bf604084018280518252602090810151910152565b5092915050565b8035801515811461200f57600080fd5b600080600080608085870312156120ec57600080fd5b6120f585611ffb565b9350602085013561210581611ec3565b92506040850135915061211a606086016120c6565b905092959194509250565b815181526020808301519082015260408101610ee2565b6000806040838503121561214f57600080fd5b61215883611ffb565b946020939093013593505050565b803561ffff8116811461200f57600080fd5b6000806040838503121561218b57600080fd5b61219483611ffb565b91506121a260208401612166565b90509250929050565b60005b838110156121c65781810151838201526020016121ae565b50506000910152565b600081518084526121e78160208601602086016121ab565b601f01601f19169290920160200192915050565b602081526000611ef560208301846121cf565b634e487b7160e01b600052604160045260246000fd5b604051606081016001600160401b03811182821017156122465761224661220e565b60405290565b604051601f8201601f191681016001600160401b03811182821017156122745761227461220e565b604052919050565b600082601f83011261228d57600080fd5b81356001600160401b038111156122a6576122a661220e565b6122b9601f8201601f191660200161224c565b8181528460208386010111156122ce57600080fd5b816020850160208301376000918101602001919091529392505050565b6000806000806080858703121561230157600080fd5b61230a85611ffb565b935060208501359250604085013561232181611ec3565b915060608501356001600160401b0381111561233c57600080fd5b6123488782880161227c565b91505092959194509250565b60008060008060a0858703121561236a57600080fd5b6123748686611efc565b935060608501356001600160401b0381111561238f57600080fd5b61239b87828801611f14565b90945092505060808501356123af81611ec3565b939692955090935050565b803560ff8116811461200f57600080fd5b600080600080600080600060e0888a0312156123e657600080fd5b6123ef88611ffb565b96506123fd602089016123ba565b955060408801359450606088013561241481611ec3565b9350608088013561242481611ec3565b925060a08801356001600160401b0381111561243f57600080fd5b61244b8a828b0161227c565b92505061245a60c089016120c6565b905092959891949750929550565b60006020828403121561247a57600080fd5b5035919050565b6000806020838503121561249457600080fd5b82356001600160401b03808211156124ab57600080fd5b818501915085601f8301126124bf57600080fd5b8135818111156124ce57600080fd5b8660208260051b85010111156124e357600080fd5b60209290920196919550909350505050565b60006020828403121561250757600080fd5b611ef582611ffb565b6000806000806060858703121561252657600080fd5b61252f85611ffb565b935061253d60208601612166565b925060408501356001600160401b0381111561255857600080fd5b61256487828801611f14565b95989497509550505050565b60006060828403121561258257600080fd5b611ef58383611efc565b634e487b7160e01b600052601160045260246000fd5b80820180821115610ee257610ee261258c565b60ff94909416845260208401929092526001600160a01b03908116604084015216606082015260800190565b60f09290921b6001600160f01b031916825260801b6fffffffffffffffffffffffffffffffff1916600282015260120190565b60208082526019908201527f496e73756666696369656e742045544820666f72206665657300000000000000604082015260600190565b600181811c9082168061265f57607f821691505b602082108103611f0e57634e487b7160e01b600052602260045260246000fd5b60006001600160401b03808411156126995761269961220e565b8360051b60206126aa81830161224c565b8681529185019181810190368411156126c257600080fd5b865b84811015612748578035868111156126dc5760008081fd5b880160603682900312156126f05760008081fd5b6126f8612224565b61270182611ffb565b815261270e868301612166565b86820152604080830135898111156127265760008081fd5b6127323682860161227c565b91830191909152508452509183019183016126c4565b50979650505050505050565b6000808585111561276457600080fd5b8386111561277157600080fd5b5050820193919092039150565b600084516127908184602089016121ab565b8201838582376000930192835250909392505050565b60208152816020820152818360408301376000818301604090810191909152601f909201601f19160101919050565b600080600080608085870312156127eb57600080fd5b6127f4856123ba565b935060208501359250604085013561280b81611ec3565b915060608501356123af81611ec3565b6040815263ffffffff8351166040820152602083015160608201526000604084015160a0608084015261285160e08401826121cf565b90506060850151603f198483030160a085015261286e82826121cf565b60809690960151151560c08501525050506001600160a01b039190911660209091015290565b6000604082840312156128a657600080fd5b604051604081018181106001600160401b03821117156128c8576128c861220e565b604052825181526020928301519281019290925250919050565b6000608082840312156128f457600080fd5b6128fc612224565b8251815260208301516001600160401b038116811461291a57600080fd5b602082015261292c8460408501612894565b60408201529392505050565b60006040828403121561294a57600080fd5b611ef58383612894565b634e487b7160e01b600052603260045260246000fd5b601f821115611946576000816000526020600020601f850160051c810160208610156129935750805b601f850160051c820191505b818110156129b25782815560010161299f565b505050505050565b81516001600160401b038111156129d3576129d361220e565b6129e7816129e1845461264b565b8461296a565b602080601f831160018114612a1c5760008415612a045750858301515b600019600386901b1c1916600185901b1785556129b2565b600085815260208120601f198616915b82811015612a4b57888601518255948401946001909101908401612a2c565b5085821015612a695787850151600019600388901b60f8161c191681555b5050505050600190811b01905550565b600060208083018184528085518083526040925060408601915060408160051b87010184880160005b83811015612af657888303603f190185528151805163ffffffff1684528781015161ffff16888501528601516060878501819052612ae2818601836121cf565b968901969450505090860190600101612aa2565b509098975050505050505050565b81810381811115610ee257610ee261258c565b6802932b1b2b4bb32b2160bd1b815260008351612b3b8160098501602088016121ab565b6b010333937b6903ab9b2b91d160a51b6009918401918201528351612b678160158401602088016121ab565b01601501949350505050565b60018060a01b038516815283602082015261ffff83166040820152608060608201526000612ba460808301846121cf565b9695505050505050565b600060208284031215612bc057600080fd5b8151611ef581611ec3565b8082028115828204841417610ee257610ee261258c56fea264697066735822122048c73a22af9a711f233be634542172d5bf80108228f56f46dc17724625d478d664736f6c63430008160033",
  "devdoc": {
    "details": "Simplified for hackathon - only this contract handles LayerZero messaging",
    "errors": {
      "OwnableInvalidOwner(address)": [
        {
          "details": "The owner is not a valid owner account. (eg. `address(0)`)"
        }
      ],
      "OwnableUnauthorizedAccount(address)": [
        {
          "details": "The caller account is not authorized to perform an operation."
        }
      ],
      "SafeERC20FailedOperation(address)": [
        {
          "details": "An operation with an ERC-20 token failed."
        }
      ]
    },
    "kind": "dev",
    "methods": {
      "allowInitializePath((uint32,bytes32,uint64))": {
        "details": "This indicates to the endpoint that the OApp has enabled msgs for this particular path to be received.This defaults to assuming if a peer has been set, its initialized. Can be overridden by the OApp if there is other logic to determine this.",
        "params": {
          "origin": "The origin information containing the source endpoint and sender address."
        },
        "returns": {
          "_0": "Whether the path has been initialized."
        }
      },
      "combineOptions(uint32,uint16,bytes)": {
        "details": "If there is an enforced lzReceive option: - {gasLimit: 200k, msg.value: 1 ether} AND a caller supplies a lzReceive option: {gasLimit: 100k, msg.value: 0.5 ether} - The resulting options will be {gasLimit: 300k, msg.value: 1.5 ether} when the message is executed on the remote lzReceive() function.This presence of duplicated options is handled off-chain in the verifier/executor.",
        "params": {
          "_eid": "The endpoint ID.",
          "_extraOptions": "Additional options passed by the caller.",
          "_msgType": "The OAPP message type."
        },
        "returns": {
          "_0": "options The combination of caller specified options AND enforced options."
        }
      },
      "isComposeMsgSender((uint32,bytes32,uint64),bytes,address)": {
        "details": "_origin The origin information containing the source endpoint and sender address.  - srcEid: The source chain endpoint ID.  - sender: The sender address on the src chain.  - nonce: The nonce of the message._message The lzReceive payload.Applications can optionally choose to implement separate composeMsg senders that are NOT the bridging layer.The default sender IS the OAppReceiver implementer.",
        "params": {
          "_sender": "The sender address."
        },
        "returns": {
          "_0": "isSender Is a valid sender."
        }
      },
      "lzReceive((uint32,bytes32,uint64),bytes32,bytes,address,bytes)": {
        "details": "Entry point for receiving messages or packets from the endpoint.Entry point for receiving msg/packet from the LayerZero endpoint.",
        "params": {
          "_executor": "The address of the executor for the received message.",
          "_extraData": "Additional arbitrary data provided by the corresponding executor.",
          "_guid": "The unique identifier for the received LayerZero message.",
          "_message": "The payload of the received message.",
          "_origin": "The origin information containing the source endpoint and sender address.  - srcEid: The source chain endpoint ID.  - sender: The sender address on the src chain.  - nonce: The nonce of the message."
        }
      },
      "nextNonce(uint32,bytes32)": {
        "details": "_srcEid The source endpoint ID._sender The sender address.The path nonce starts from 1. If 0 is returned it means that there is NO nonce ordered enforcement.Is required by the off-chain executor to determine the OApp expects msg execution is ordered.This is also enforced by the OApp.By default this is NOT enabled. ie. nextNonce is hardcoded to return 0.",
        "returns": {
          "nonce": "The next nonce."
        }
      },
      "oAppVersion()": {
        "returns": {
          "receiverVersion": "The version of the OAppReceiver.sol implementation.",
          "senderVersion": "The version of the OAppSender.sol implementation."
        }
      },
      "owner()": {
        "details": "Returns the address of the current owner."
      },
      "renounceOwnership()": {
        "details": "Leaves the contract without owner. It will not be possible to call `onlyOwner` functions. Can only be called by the current owner. NOTE: Renouncing ownership will leave the contract without an owner, thereby disabling any functionality that is only available to the owner."
      },
      "send(uint32,address,uint256,bool)": {
        "params": {
          "_amount": "Amount",
          "_dstEid": "Destination endpoint ID (source chain)",
          "_success": "Whether withdrawal was successful",
          "_user": "User address"
        }
      },
      "setDelegate(address)": {
        "details": "Only the owner/admin of the OApp can call this function.Provides the ability for a delegate to set configs, on behalf of the OApp, directly on the Endpoint contract.",
        "params": {
          "_delegate": "The address of the delegate to be set."
        }
      },
      "setEnforcedOptions((uint32,uint16,bytes)[])": {
        "details": "Sets the enforced options for specific endpoint and message type combinations.Only the owner/admin of the OApp can call this function.Provides a way for the OApp to enforce things like paying for PreCrime, AND/OR minimum dst lzReceive gas amounts etc.These enforced options can vary as the potential options/execution on the remote may differ as per the msgType. eg. Amount of lzReceive() gas necessary to deliver a lzCompose() message adds overhead you dont want to pay if you are only making a standard LayerZero message ie. lzReceive() WITHOUT sendCompose().",
        "params": {
          "_enforcedOptions": "An array of EnforcedOptionParam structures specifying enforced options."
        }
      },
      "setPeer(uint32,bytes32)": {
        "details": "Only the owner/admin of the OApp can call this function.Indicates that the peer is trusted to send LayerZero messages to this OApp.Set this to bytes32(0) to remove the peer address.Peer is a bytes32 to accommodate non-evm chains.",
        "params": {
          "_eid": "The endpoint ID.",
          "_peer": "The address of the peer to be associated with the corresponding endpoint."
        }
      },
      "setStakingAggregator(address)": {
        "params": {
          "_stakingAggregator": "Address of the StakingAggregator contract"
        }
      },
      "transferOwnership(address)": {
        "details": "Transfers ownership of the contract to a new account (`newOwner`). Can only be called by the current owner."
      }
    },
    "title": "AnyStake",
    "version": 1
  },
  "userdoc": {
    "kind": "user",
    "methods": {
      "allowInitializePath((uint32,bytes32,uint64))": {
        "notice": "Checks if the path initialization is allowed based on the provided origin."
      },
      "combineOptions(uint32,uint16,bytes)": {
        "notice": "Combines options for a given endpoint and message type."
      },
      "deposit(uint32,uint256,address,bytes)": {
        "notice": "Stakes tokens by locking them and sending a cross-chain composed message"
      },
      "endpoint()": {
        "notice": "Retrieves the LayerZero endpoint associated with the OApp."
      },
      "getDepositQuote(uint32,uint256,address,bytes)": {
        "notice": "Get the quote for a deposit operation"
      },
      "getPendingWithdrawal(bytes32)": {
        "notice": "Get pending withdrawal details"
      },
      "getSendQuote(uint32,address,uint256,bool)": {
        "notice": "Get quote for send function"
      },
      "getWithdrawQuote(uint32,uint256,address,bytes)": {
        "notice": "Get the quote for a withdraw operation"
      },
      "isComposeMsgSender((uint32,bytes32,uint64),bytes,address)": {
        "notice": "Indicates whether an address is an approved composeMsg sender to the Endpoint."
      },
      "nextNonce(uint32,bytes32)": {
        "notice": "Retrieves the next nonce for a given source endpoint and sender address."
      },
      "oAppVersion()": {
        "notice": "Retrieves the OApp version information."
      },
      "peers(uint32)": {
        "notice": "Retrieves the peer (OApp) associated with a corresponding endpoint."
      },
      "quote(uint32,uint8,uint256,address,address,bytes,bool)": {
        "notice": "Quotes the gas needed for messaging operations"
      },
      "send(uint32,address,uint256,bool)": {
        "notice": "Simple send function for StakeAggregator to call back to source"
      },
      "setDelegate(address)": {
        "notice": "Sets the delegate address for the OApp."
      },
      "setPeer(uint32,bytes32)": {
        "notice": "Sets the peer address (OApp instance) for a corresponding endpoint."
      },
      "setStakingAggregator(address)": {
        "notice": "Set the StakingAggregator contract address"
      },
      "withdraw(uint32,uint256,address,bytes)": {
        "notice": "Initiates withdrawal - tokens remain locked until confirmation"
      }
    },
    "notice": "A LayerZero OApp that handles all cross-chain messaging for hackathon",
    "version": 1
  },
  "storageLayout": {
    "storage": [
      {
        "astId": 1533,
        "contract": "contracts/AnyStake.sol:AnyStake",
        "label": "_owner",
        "offset": 0,
        "slot": "0",
        "type": "t_address"
      },
      {
        "astId": 785,
        "contract": "contracts/AnyStake.sol:AnyStake",
        "label": "peers",
        "offset": 0,
        "slot": "1",
        "type": "t_mapping(t_uint32,t_bytes32)"
      },
      {
        "astId": 1381,
        "contract": "contracts/AnyStake.sol:AnyStake",
        "label": "enforcedOptions",
        "offset": 0,
        "slot": "2",
        "type": "t_mapping(t_uint32,t_mapping(t_uint16,t_bytes_storage))"
      },
      {
        "astId": 2381,
        "contract": "contracts/AnyStake.sol:AnyStake",
        "label": "data",
        "offset": 0,
        "slot": "3",
        "type": "t_string_storage"
      },
      {
        "astId": 2385,
        "contract": "contracts/AnyStake.sol:AnyStake",
        "label": "lockedBalances",
        "offset": 0,
        "slot": "4",
        "type": "t_mapping(t_address,t_uint256)"
      },
      {
        "astId": 2390,
        "contract": "contracts/AnyStake.sol:AnyStake",
        "label": "pendingWithdrawals",
        "offset": 0,
        "slot": "5",
        "type": "t_mapping(t_bytes32,t_struct(PendingWithdrawal)2399_storage)"
      },
      {
        "astId": 2392,
        "contract": "contracts/AnyStake.sol:AnyStake",
        "label": "stakingAggregator",
        "offset": 0,
        "slot": "6",
        "type": "t_address"
      }
    ],
    "types": {
      "t_address": {
        "encoding": "inplace",
        "label": "address",
        "numberOfBytes": "20"
      },
      "t_bool": {
        "encoding": "inplace",
        "label": "bool",
        "numberOfBytes": "1"
      },
      "t_bytes32": {
        "encoding": "inplace",
        "label": "bytes32",
        "numberOfBytes": "32"
      },
      "t_bytes_storage": {
        "encoding": "bytes",
        "label": "bytes",
        "numberOfBytes": "32"
      },
      "t_mapping(t_address,t_uint256)": {
        "encoding": "mapping",
        "key": "t_address",
        "label": "mapping(address => uint256)",
        "numberOfBytes": "32",
        "value": "t_uint256"
      },
      "t_mapping(t_bytes32,t_struct(PendingWithdrawal)2399_storage)": {
        "encoding": "mapping",
        "key": "t_bytes32",
        "label": "mapping(bytes32 => struct AnyStake.PendingWithdrawal)",
        "numberOfBytes": "32",
        "value": "t_struct(PendingWithdrawal)2399_storage"
      },
      "t_mapping(t_uint16,t_bytes_storage)": {
        "encoding": "mapping",
        "key": "t_uint16",
        "label": "mapping(uint16 => bytes)",
        "numberOfBytes": "32",
        "value": "t_bytes_storage"
      },
      "t_mapping(t_uint32,t_bytes32)": {
        "encoding": "mapping",
        "key": "t_uint32",
        "label": "mapping(uint32 => bytes32)",
        "numberOfBytes": "32",
        "value": "t_bytes32"
      },
      "t_mapping(t_uint32,t_mapping(t_uint16,t_bytes_storage))": {
        "encoding": "mapping",
        "key": "t_uint32",
        "label": "mapping(uint32 => mapping(uint16 => bytes))",
        "numberOfBytes": "32",
        "value": "t_mapping(t_uint16,t_bytes_storage)"
      },
      "t_string_storage": {
        "encoding": "bytes",
        "label": "string",
        "numberOfBytes": "32"
      },
      "t_struct(PendingWithdrawal)2399_storage": {
        "encoding": "inplace",
        "label": "struct AnyStake.PendingWithdrawal",
        "members": [
          {
            "astId": 2394,
            "contract": "contracts/AnyStake.sol:AnyStake",
            "label": "user",
            "offset": 0,
            "slot": "0",
            "type": "t_address"
          },
          {
            "astId": 2396,
            "contract": "contracts/AnyStake.sol:AnyStake",
            "label": "amount",
            "offset": 0,
            "slot": "1",
            "type": "t_uint256"
          },
          {
            "astId": 2398,
            "contract": "contracts/AnyStake.sol:AnyStake",
            "label": "exists",
            "offset": 0,
            "slot": "2",
            "type": "t_bool"
          }
        ],
        "numberOfBytes": "96"
      },
      "t_uint16": {
        "encoding": "inplace",
        "label": "uint16",
        "numberOfBytes": "2"
      },
      "t_uint256": {
        "encoding": "inplace",
        "label": "uint256",
        "numberOfBytes": "32"
      },
      "t_uint32": {
        "encoding": "inplace",
        "label": "uint32",
        "numberOfBytes": "4"
      }
    }
  }
}